:020000040800F2
:100000002805002035010008FB190008DF1800084A
:10001000F9190008B7070008AD1F0008000000002C
:10002000000000000000000000000000D51A0008D9
:10003000B9070008000000001D1A0008D71A0008C0
:100040004F0100084F0100084F0100084F01000850
:100050004F0100084F0100084F0100084F01000840
:100060004F0100084F0100084F0100084F01000830
:100070004F0100084F0100084F0100084F01000820
:100080004F0100084F0100084F0100080000000068
:100090000000000000000000000000004F01000808
:1000A0004F0100084F0100084F0100084F010008F0
:1000B0004F0100084F0100084F0100084F010008E0
:1000C0004F0100084F0100084F0100084F010008D0
:1000D0004F0100084F010008A11F00084F01000850
:1000E0004F0100084F0100084F0100080000000008
:1000F0000000000000000000000000000000000000
:1001000000000000000000000000000000000000EF
:1001100000000000000000004F0100084F0100082F
:10012000DFF80CD000F014FB004800475D29000800
:10013000280500200648804706480047FEE7FEE7FE
:10014000FEE7FEE7FEE7FEE7FEE7FEE7FEE7FEE787
:10015000291B000821010008202A04DB203A21FA8B
:1001600002F00021704721FA02F3D040C2F12002D0
:100170009140084319467047D2B201E000F8012BC4
:10018000491EFBD270470022F6E710B513460A4617
:1001900004461946FFF7F0FF204610BD421C10F838
:1001A000011B0029FBD1801A70472DE9FE4F81EA1F
:1001B000030404F0004421F0004100944FF0000BD0
:1001C00023F0004350EA01045ED052EA03045BD0FE
:1001D000C3F30A54C1F30A552C44A4F2F334019436
:1001E000A0FB0254C1F3130141F48011C3F31303C4
:1001F00043F4801301FB024400FB034E840A970A78
:1002000044EA815447EA8357A4FB076802958D0AA4
:1002100005FB07854FEA932C04FB0C542705029D30
:100220004FEA065847EA1637B5EB08056EEB070CA0
:10023000870E920E47EA811742EA8312A7FB02015A
:10024000B6EB0B0164EB00042B0D43EA0C335E1894
:1002500044EB1C50DA465146E7FB0201C5F3130498
:100260004FEA0B3343EA14534FEA0432019C43EA4A
:100270000603A4F10C040294009CCDE900B400F044
:10028000D3F803B0BDE8F08F00200146F9E70EB5C2
:10029000C10F80EAE0700844CA07002140F23343EE
:1002A0008DE80E000A460B4600F0BEF803B000BD14
:1002B00000F0004230F000400AD0C10D01F560713D
:1002C000C0F3160042EA0151C208400711437047CB
:1002D00000200146704701F0004330B421F0004196
:1002E00050EA010206D00A0DA2F56072C1F31301B3
:1002F000002A02DC30BC00207047440F44EAC104ED
:10030000C100E01830BC00EBC25000F047B830B577
:100310000B46014600202022012409E021FA02F5C3
:100320009D4205D303FA02F5491B04FA02F528445D
:10033000151EA2F10102F1DC30BD2DE9F05F05468A
:10034000002092469B4688460646814640241BE094
:100350002846414647462246FFF7FEFE53465A4688
:10036000C01A914110D311461846224600F002FAF5
:100370002D1A67EB01084F4622460120002100F0AC
:10038000F9F917EB00094E41201EA4F10104DFDC4E
:10039000484631462A464346BDE8F09F0029A8BF9B
:1003A0007047401C490008BF20F00100704710B49E
:1003B000B0FA80FC00FA0CF050EA010404BF10BC53
:1003C000704749B1CCF1200421FA04F411FA0CF180
:1003D00018BF012121430843A3EB0C01CB1D4FEAB9
:1003E00000614FEA102042BF002010BC704700EBB4
:1003F000C35010440029A4BF10BC7047401C4900E2
:1004000008BF20F0010010BC704710B5141E73F136
:10041000000408DA401C41F1000192185B411A43C4
:1004200001D120F0010010BD2DE9F04D92469B4610
:1004300011B1B1FA81F202E0B0FA80F220329046B6
:1004400000F098F904460F4640EA0A0041EA0B0121
:1004500053465A46084313D0114653EA010019D0B7
:10046000C8F140025046FFF777FE05460E4650465B
:100470005946424600F07EF9084305D0012004E0C9
:1004800020463946BDE8F08D0020054346EAE07677
:100490002C4337430A986305E40AA0EB08000022C6
:1004A000FD0A44EA47540A3002D500200146E9E734
:1004B000010510196941DDE9084500196941BDE8E8
:1004C000F04DA2E72DE9FE4F804681EA0300C00F00
:1004D0000C46009021F0004123F00045B8EB0200EB
:1004E000A94105D24046214690461C460B4602468D
:1004F00023F00040104347D0270DC7F30A00C3F391
:100500000A510290401A019040286BDAC3F313009D
:1005100040F4801B0098924620B10023D2EB030ADE
:1005200063EB0B0B01985946C0F14002504600F0B6
:1005300021F906460D4650465946019A00F029F920
:1005400010EB08006141002487EA115284EAE77346
:100550001A4340D0009A62B3019A012A4FEA075227
:1005600015DC001B61EB02014FF0004202EA07526A
:10057000CDE90042001C41F5801132462B46FFF7C1
:1005800053FF03B0BDE8F08F40462146F9E7001B5A
:1005900061EB0201001C41F5801300185B4120183B
:1005A000A2F5001747EB030140EAD570B6196D417B
:1005B00011E06D084FEA360645EAC0754FEA07526A
:1005C000001B61EB0201001C41F5801149084FEA54
:1005D00030000019514132462B4603B0BDE8F04FC0
:1005E000FFF713BF0098012240000023D0EB020266
:1005F00063EBE073009821464FEAE074B8EB00002B
:1006000061EB0401E9E783F000435BE781F000411F
:1006100058E72DE9F04D81EA030404F0004B21F086
:10062000004514464FF0000A23F0004150EA05024D
:1006300020D054EA01021DD0C5F30A570246C5F383
:100640001303C1F31300C1F30A5640F4801543F4B9
:100650008013A7EB0608101BD64608F2FD3873EB93
:10066000050002D308F1010801E092185B41B8F1DE
:10067000000F03DA00200146BDE8F08D00204FF4A2
:100680008011064684460EE0171B73EB050705D361
:10069000121B63EB050306434CEA010C49084FEAC1
:1006A000300092185B4150EA0107EDD152EA030095
:1006B00012D082EA040083EA0501084305D0101B2A
:1006C000AB4106D20122002306E000224FF0004396
:1006D00002E06FF0010253101AEB06004CEB0851D8
:1006E00010EB0A0041EB0B01BDE8F04DFFF78DBEAA
:1006F000C1F30A52C1F3130140F2FF3341F48011F8
:100700009A4202DA00200146704740F233439A428F
:10071000A2F2334202DC5242FFF71EBD00F02AB8BB
:1007200030B5041E71F1000404DB4FF00044404278
:1007300064EB0101141E73F1000405DB1C464FF04D
:100740000043524263EB0403994208BF904230BD1C
:10075000064C074D06E0E06840F0010394E807000E
:1007600098471034AC42F6D3FFF7DEFC202B00088C
:10077000402B0008202A04DB203A00FA02F1002076
:1007800070479140C2F1200320FA03F319439040CF
:100790007047202A06DBCB17203A41FA02F043EAE1
:1007A000E07306E041FA02F3D040C2F1200291402A
:1007B000084319467047FEE77047000010B590F8EF
:1007C00021100024022903D00421816301243DE08B
:1007D00001680A6822F00E020A6001680A6822F0C5
:1007E00001020A601A4A0168914201D1012121E007
:1007F000174A1432914201D110211BE0144A2832C9
:10080000914201D1891515E0114A3C32914201D142
:1008100089140FE00E4A5032914202D14FF48031D8
:1008200008E00B4A6432914202D14FF4801101E09A
:100830004FF08071064A083A5160012180F821107A
:10084000002180F82010416B01B18847204610BD7F
:100850000800024070B5044600F0F2F80546601C3E
:1008600002D004480078044400F0EAF8401BA0429B
:10087000FAD370BD1C0000202DE9F84FDFF890A1DD
:1008800000220AF1040B144601274FF00F090BF167
:10089000040E00BF0B6807FA04F52B40AB4274D17D
:1008A000DFF870C14E68A6EB0C0866452BD00DDC56
:1008B000032E34D005DC36B3012E19D0022E2FD1F1
:1008C0001BE0112E16D0122E2AD119E0B8F5881F80
:1008D00019D006DCB8F5803F15D0B8F5801F1FD1C0
:1008E00011E0B8F5001F0ED0B8F5041F18D10AE0CA
:1008F000CA6815E0CA68121D12E0CA6808320FE023
:10090000CA680C320CE08A682AB1012A4FF008024A
:1009100003D0456104E0042202E0056100E000220A
:10092000FF2B01D8064601E000F104064FEA8405DA
:1009300001D9A5F12005D6F800C009FA05F82CEA7E
:10094000080C02FA05F54CEA050CC6F800C04D6823
:10095000ED0057D5304DAE6946F00106AE61AD6988
:1009600024F0030605F0010500952C4D06EB050C5F
:10097000DCF80850A6074FEA167809FA08F6B543DE
:10098000274EB04202D1002610E03BE0254EB04297
:1009900001D101260AE0244EB04201D1022605E031
:1009A000224EB04201D1032600E0042606FA08F6E2
:1009B0002E43CCF808604D68DAF80060ED03554628
:1009C00001D51E4300E09E432E604D68DBF80060B9
:1009D000AD035D4601D51E4300E09E432E604D6889
:1009E000DEF80060ED02754601D51E4300E09E432F
:1009F0002E604D68AD020E4D2E6801D51E4300E0FD
:100A00009E432E60641C102CFFF444AFBDE8F88FA9
:100A100000040140000011100010024000000140DD
:100A200000080140000C014000100140001401408A
:100A30000C0401400AB1016170470904FBE70000A2
:100A400001488068704700001C000020024881684F
:100A500002781144816070471C00002010B503200B
:100A600000F072F8002000F005F800F023F80020F4
:100A700010BD000070B50D4D04464FF47A71287812
:100A8000B1FBF0F00A490968B1FBF0F000F0B8FDE5
:100A900048B9102C07D200222146501E00F034F82D
:100AA00000206C6070BD012070BD00001C000020A3
:100AB000280000200C4808B5816941F001018161DE
:100AC000816901F001010091C16941F08051C1616A
:100AD000C06900F0805000900448416821F0E06156
:100AE00041F00071416008BD00100240000001406B
:100AF00000F01F02012191404009800000F1E02038
:100B0000C0F8001170470000F0B40E4B1B680C4693
:100B1000C3F30223C3F10705042D00D90425191DD1
:100B2000072901D2002300E0DB1E012606FA05F1A9
:100B3000491E214099409E40761E16403143F0BC2C
:100B400000F05CBF0CED00E0064900F00702086809
:100B50004FF6FF03184040EA0220034A10430860A2
:100B6000704700000CED00E00000FA052DE9F041AF
:100B7000054600683F4C810712D5400703D56068E1
:100B800040F4E06060602878000703D5606840F4B6
:100B9000605060606068A96820F0F0000843606001
:100BA0002878C00743D06868012804D0216802284B
:100BB00004D0890703E02168890300E08901002946
:100BC00002DB0120BDE8F081616821F003010143EF
:100BD0006160FFF735FF0746686841F288360128F3
:100BE00007D0022811D01EE0FFF72AFFC01BB04239
:100BF00017D86068C0F381000128F5D117E000BF65
:100C0000FFF71EFFC01BB0420BD86068C0F3810025
:100C10000228F5D10BE000BFFFF712FFC01BB04266
:100C200001D90320CEE7606810F00C0FF4D12878CA
:100C3000400705D56068E96820F4E060084360601B
:100C40002878000706D56068296920F4605040EADA
:100C5000C100606000F034F86168074AC1F3031115
:100C6000515CC840054908600020FFF703FF0020E1
:100C7000A8E7000000100240082B00082800002010
:100C80000448054900684968044AC1F30221515CDF
:100C9000C84070472800002000100240182B0008B0
:100CA0000448054900684968044AC1F3C221515CFF
:100CB000C84070472800002000100240182B000890
:100CC00013A188B00FC98DE80F0015A10DF1100C0C
:100CD0000FC98CE80F00164A5168164801F00C0342
:100CE000042B10D0082B0ED1C1F38343C9031DF888
:100CF00003000AD5D16A04AA01F00F01515C0D4A24
:100D00005043B0FBF1F008B070470B494843FAE795
:100D100002030405060708090A0B0C0D0E0F10103C
:100D20000102030405060708090A0B0C0D0E0F103B
:100D30000010024000127A0000093D002DE9F84F32
:100D400004460078B94DC00748D06868C0F38100F8
:100D5000012807D06868C0F38100022809D16868BB
:100D6000C00306D52868800338D5606800286FD096
:100D700034E06068B0F5803F0BD010B1B0F5A02F23
:100D800011D0286820F480302860286820F4802062
:100D900002E0286840F480302860606888B1FFF77E
:100DA0004FFE064609E0286840F480202860F0E7FE
:100DB000FFF746FE801B642875D828688003F7D5A6
:100DC0000CE0FFF73DFE064605E000BFFFF738FEEA
:100DD000801B6428F0D828688003F7D42078944ECC
:100DE00080074FF001094FF000083BD5686810F00C
:100DF0000C0F07D06868C0F38100022809D1686829
:100E0000C00306D42868800714D5206901281FD1A3
:100E100010E02069B0B1C6F80090FFF711FE074658
:100E200005E000BFFFF70CFEC01B0228C4D82868ED
:100E30008007F7D52868616920F0F80040EAC10012
:100E400028600FE0C6F80080FFF7FAFD074606E0CD
:100E5000E9E000BFFFF7F4FDC01B022823D8286893
:100E60008007F7D4207800072CD57248A169D9B142
:100E7000C0F80090FFF7E4FD074604E0FFF7E0FD4F
:100E8000C01B02280FD8686A8007F7D56A484FF45C
:100E9000FA510068B0FBF1F0009000BF0098411ECD
:100EA0000091FAD20EE080E0C0F80080FFF7C8FDA4
:100EB000074604E0FFF7C4FDC01B022875D8686A26
:100EC0008007F7D42078400760D5E8690027C00084
:100ED00008D4E86940F08050E861E869012700F033
:100EE0008050009055480168C90513D401688346B5
:100EF00041F480710160FFF7A3FD824606E000BF68
:100F0000FFF79EFDA0EB0A0064284ED8DBF8000036
:100F1000C005F5D5E06801280AD008B1052813D02E
:100F2000286A20F001002862286A20F0040002E00C
:100F3000286A40F001002862E06841F2883B98B1DD
:100F4000FFF77EFD82460BE0286A40F0040028622D
:100F5000EEE700BFFFF774FDA0EB0A0159455AD830
:100F6000286A8007F6D50CE0FFF76AFD824605E0A7
:100F7000FFF766FDA0EB0A0159454CD8286A8007A7
:100F8000F6D41FB1E86920F08050E861E06988B3C9
:100F90006968C1F38101022945D00228C6F8608042
:100FA00004D0FFF74DFD044638E034E0FFF748FD7C
:100FB000074604E0FFF744FDC01B02282BD8286831
:100FC0008001F7D4206AB0F5803F05D1E86AA168B6
:100FD00020F00F000843E862D4E90801084369687B
:100FE00021F4741108436860C6F86090FFF728FD8B
:100FF000044606E015E000BFFFF722FD001B0228B3
:1010000009D828688001F7D50BE000BFFFF718FD6D
:10101000001B022802D90320BDE8F88F2868800150
:10102000F4D40020F8E70120F6E7000000100240A9
:10103000000042428004424228000020007000402C
:1010400070B5040005D00025A56294F8510010B1D8
:1010500004E0012070BD204600F02EF8022084F844
:1010600051002068016821F040010160D4E90101CC
:101070000843D4E903121143084361690843218BF3
:1010800001F400710843E1690843216A0843A16A39
:10109000084321680860A069042101EA1040616AE0
:1010A0000843216848602168E06A0861656501209D
:1010B00084F85100002070BD30B585B00024009444
:1010C000019402940394254D0368254802210322CC
:1010D000AB421AD1836943F480538361836903F47B
:1010E00080530493836943F00403836180691D4D39
:1010F00000F004000490A020CDE9000103926946AD
:101100002846FFF7B9FB40201EE0174DAB4222D125
:10111000C36943F48043C361C36903F48043049308
:10112000836943F0080383618069104D00F0080073
:1011300004904FF42040CDE900010392694628460F
:10114000FFF79AFB4FF48040CDE90004694628463A
:101150000294FFF791FB05B030BD00000030014064
:10116000001002400008014000380040000C01401F
:101170002DE9F84F044640680026984617460D466C
:101180004FF00409B0F5827F01D1A06890B194F8C6
:101190005000012819D04FF0010B84F850B0FFF730
:1011A0004FFC009094F851004FF0000A01280ED037
:1011B00002267FE084F8519013460A462046CDF877
:1011C000008000F031F9BDE8F88F0220FBE7002D28
:1011D0006FD0002F6DD084F85190C4F854A0A5634F
:1011E000A787E787C4F830A0A4F834A0A4F836A0F5
:1011F000C4F840A0C4F844A0A0684FF40047B84227
:1012000004D12068016821F48041016020680168F0
:10121000490603D4016841F040010160E068B8B1BB
:1012200033E020688168C90706D0007B05F8010B10
:10123000E08F401EE0870BE0B8F1000F23D0B8F13B
:10124000FF3F05D0FFF7FCFB0099411A41451AD238
:10125000E08F0028E5D11BE020688168C90706D02F
:10126000C06825F8020BE08F401EE0870DE0B8F162
:10127000000F08D0B8F1FF3F07D0FFF7E1FB00995E
:10128000411A414501D3032614E0E08F0028E3D141
:101290006068B0F5827F0AD1A068B84202D0B0F58C
:1012A000806F04D12068016821F040010160606D09
:1012B00000B1012684F851B084F850A0304682E78E
:1012C0002DE9F84F044690F850000026994617463D
:1012D0000D4601280DD04FF0010B84F850B0FFF7F8
:1012E000AFFB804694F85100B246012804D0022694
:1012F00094E00220BDE8F88F002D7BD0002F79D03C
:10130000032084F85100C4F854A02563A786E7861B
:10131000C4F838A0A4F83CA0A4F83EA0C4F844A0A7
:10132000C4F840A0A068B0F5004F04D1206801685F
:1013300041F48041016020680168490603D40168D6
:1013400041F040010160E068B0F5006F606804D0D2
:1013500030B3E08E012823D03EE010B1E08E0128AA
:101360001AD135F8021B206805E0206881688907DA
:1013700006D535F8021BC160E08E401EE0860BE00A
:10138000B9F1000F34D0B9F1FF3F05D0FFF758FB9A
:10139000A0EB080149452BD2E08E0028E5D11EE0E4
:1013A000216815F8010B087306E020688168890739
:1013B00006D515F8011B0173E08E401EE0860BE098
:1013C000B9F1000F14D0B9F1FF3F05D0FFF738FB9A
:1013D000A0EB080149450BD2E08E0028E5D14B4631
:1013E000012202212046CDF8008000F028FB10B138
:1013F000032613E011E042464946204600F00FFB69
:1014000018B101262020606508E0A06818B920689E
:10141000C16880680090606D00B1012684F851B009
:1014200084F850A0304665E72DE9F84F044690F85F
:10143000500000260A9F9A4693460D464FF0010839
:1014400001280ED0012084F85000FFF7F9FA8146F8
:1014500094F85100616801280CD0B1F5827F07D162
:1014600002E00220BDE8F88FA16809B9042801D084
:101470000226BDE055B1BBF1000F07D0BAF1000F55
:1014800004D094F85100012802D004E00126AFE016
:10149000052084F8510000206065C4F838B0A4F835
:1014A0003EA0A4F83CA02563A4F836A0A4F834A07C
:1014B0002064606420680168490603D4016841F033
:1014C00040010160E068B0F5006F606804D0E8B3E7
:1014D000E08E01283BD06AE010B1E08E01282ED1C9
:1014E000216835F8020BC860E08E401EE08626E0D9
:1014F000B8F1000F0DD0E08E58B1206881688907DF
:1015000007D535F8021BC160E08E401EE0864FF023
:101510000008E08F58B120688168C90707D0C0680B
:101520002BF8020BE08F401EE0874FF00108781C7B
:1015300005D0FFF785FAA0EB0900B84246D2E08E4D
:101540000028D5D1E08F0028D2D136E0FFE721680E
:1015500015F8010B0873E08E401EE08627E000BFFF
:10156000B8F1000F0DD0E08E58B12068816889076E
:1015700007D515F8011B0173E08E401EE0864FF081
:101580000008E08F58B120688168C90707D0C0689B
:101590000BF8010BE08F401EE0874FF00108781C2C
:1015A00005D0FFF74DFAA0EB0900B8420ED2E08E4D
:1015B0000028D5D1E08F0028D2D13B46012202215C
:1015C0002046CDF8009000F03AFA08B103260FE06B
:1015D0004A463946204600F022FA18B1012620205A
:1015E000606505E0A06818B92068C168806800904F
:1015F000012084F85100002084F85000304631E783
:1016000010B5401EB0F1807F01D3012010BD4FF016
:10161000E02460610F21601700F0F0F90020A06164
:1016200007202061002010BD7047000070B50268DF
:1016300004461068D168536910F00F0F50D003F0C2
:10164000010501F4907635435DD0C20705D0CA0587
:1016500003D5E26B42F00102E263420705D5DA07E7
:1016600003D0E26B42F00202E263820705D5DA079B
:1016700003D0E26B42F00402E263020705D5DA0709
:1016800003D0E26B42F00802E263E26B002A33D03F
:10169000800604D5880602D5204600F081FA20682D
:1016A0004069E16BC0F38010090700D428B32046DD
:1016B00000F068FA2068416949061AD5416921F0AD
:1016C00040014161606BA0B11B494163606BFFF752
:1016D00075F8002810D0606B416BBDE8704008477A
:1016E000830610D58B060ED52046BDE8704000F06D
:1016F00057BA2046FFF798FF70BD2046FFF794FFCA
:101700000020E06370BD030606D50B0604D5204615
:10171000BDE8704000F0E0BB4006F3D54806F1D5C7
:10172000D168204621F04001D160202184F8391091
:1017300000F0D4F870BD0000751B000870B50400FF
:1017400004D094F83900002510B106E0012070BDE6
:1017500084F83850204600F023F8242084F839001B
:101760002068C16821F40051C160204600F064FA8D
:101770002068016921F4904101612068416921F0EC
:101780002A0141612068C16841F40051C160E563EC
:10179000202084F8390084F83A00002070BD000051
:1017A00030B585B00024009401940294039400683D
:1017B000184988422BD11848C16941F40031C161F0
:1017C000C16901F400310491816941F00401816132
:1017D0008069124D00F00400049004200090022063
:1017E00001900320039069462846FFF745F808203A
:1017F000CDE90004694628460294FFF73DF800222F
:1018000011462620FFF780F92620FFF771F905B071
:1018100030BD0000004400400010024000080140BC
:1018200070472DE9F843044690F839001F461646E4
:101830000D46202850D1A5B19EB194F8380001285A
:101840004AD0012084F838004FF00008C4F83C80EA
:10185000212084F83900FFF7F3F8A6848146E68456
:1018600026E00120BDE8F883E08C401EE084A068FB
:101870004B46B0F5805F4FF000024FF080012046EC
:10188000009703D000F059FBE8B90DE000F055FBDC
:10189000C8B928882168C0F308004860206908B1E9
:1018A0006D1C05E0AD1C03E0216815F8010B4860D4
:1018B000E08C0028D8D14B460022402120460097DA
:1018C00000F03BFB08B10320CCE7202084F839006E
:1018D00084F838800020C5E70220C3E77047FEE7A0
:1018E0002DE9F04186B0002424480094019402942C
:1018F0000394816941F010018161816901F0100157
:101900000491816941F020018161816901F0200128
:101910000491816941F004018161816901F0040150
:101920000491816941F0080181618069144F00F0E0
:1019300008004FF440750490002229463846FFF70E
:1019400079F8DFF84080002240214046FFF772F826
:101950000095022601250396CDE9015469463846D3
:10196000FEF78AFF4020CDE90005CDE90246694631
:101970004046FEF781FF06B0BDE8F081001002404E
:1019800000100140000C01400C480B49022201608C
:101990004FF48271416000218160C0E9031201228D
:1019A0004261520282612822C0E9072141628162BC
:1019B0000A21C162FFF744BB003001402C00002027
:1019C0000C480B49022201604FF4827141600021F2
:1019D0008160C0E903120122426152028261282221
:1019E000C0E90721416281620A21C162FFF728BB79
:1019F0000038004084000020FEE770470907090E08
:101A0000002806DA00F00F0000F1E02080F8141D35
:101A1000704700F1E02080F800147047704738B537
:101A20000B46009204460022802100F008F80028AE
:101A300004D0606D40F020006065032038BD2DE9C2
:101A4000F0411D4617460E460446DDF8188035E085
:101A5000681C33D02DB1FEF7F3FFA0EB0800A842BD
:101A60002CD32068416821F0E00141606068B0F546
:101A7000827F0BD1A068B0F5004F02D0B0F5806F27
:101A800004D12068016821F040010160A06AB0F52E
:101A9000005F0AD1206801684DF6FF7211400160B5
:101AA0002068016841F400510160012084F8510070
:101AB000002084F850000320BDE8F0812068806891
:101AC00036EA000004D00020B842C1D10020F3E77C
:101AD0000120F9E77047FEF7B9BF10B590B0282193
:101AE0006846FEF750FB14210AA8FEF74CFB0121C3
:101AF0000804CDE9001002240291CDE907404FF41B
:101B0000402009906846FFF719F90F20CDE90A0433
:101B100090200C9000200D9001460E900AA8FFF72F
:101B200025F810B010BD00000E48016841F0010119
:101B3000016041680C4A1140416001680B4A114044
:101B40000160016821F480210160416821F4FE01F7
:101B500041604FF41F0181600021C1620449C0034C
:101B600008607047001002400000FFF8FFFFF6FE1B
:101B700008ED00E010B5406A0021C185C184FFF77F
:101B800053FD10BD0168CA6822F49072CA600168F2
:101B90004A6922F001024A61202180F83A10704718
:101BA00010B590F83A10222901D0022010BD8168AA
:101BB000B1F5805F11D00169002901681FD0496823
:101BC00001F07F03816A4A1C82620B70C18D491E3D
:101BD0000904090CC18518D02BE00269816A002A2A
:101BE0000268526805D0D2B20A80816A491C8162BB
:101BF000ECE7C2F308020A80816A891CF7E74A68A9
:101C0000816A4B1C83620A70E0E70168CA6822F0AF
:101C10002002CA600168CA6822F48072CA60016842
:101C20004A6922F001024A61202180F83A10FFF748
:101C3000F7FD002010BD00002DE9F04104460068CA
:101C40000169E26821F44051114301612169A068F2
:101C5000E26908436169114322680843D16849F287
:101C60000C6399430143D16020684169A26921F462
:101C7000407111434161E1696425B1F5004F954818
:101C800021684FF032083DD081427AD1FFF708F841
:101C900000EBC00101EB001061688900B0FBF1F6B8
:101CA000FEF7FEFF00EBC00101EB00106168890048
:101CB000B0FBF1F0B0FBF5F06FF01801484306EB14
:101CC000800108EB0110B0FBF5F000F0F006FEF724
:101CD000E7FF00EBC00101EB001061688900B0FB79
:101CE000F1F0B0FBF5F006EB0016FEF7D9FF00EBC4
:101CF000C00101EB001061688900B0FBF1F7FEF74D
:101D0000CFFFD0E081423DD1FEF7CAFF00EBC0011A
:101D100001EB001061684900B0FBF1F0B0FBF5F099
:101D20000601FEF7BDFF00EBC00101EB001061688A
:101D30004900B0FBF1F7FEF7B3FF00EBC00101EB88
:101D4000001061684900B0FBF1F0B0FBF5F06FF0F6
:101D50001801484307EB800108EBC100B0FBF5F028
:101D600000F0F80006EB4006FEF79AFF00EBC0011A
:101D700001EB001061684900B0FBF1F7FEF790FF3E
:101D80003CE055E0FEF77CFF00EBC00101EB0010EA
:101D900061684900B0FBF1F0B0FBF5F00601FEF719
:101DA0006FFF00EBC00101EB001061684900B0FB60
:101DB000F1F7FEF765FF00EBC00101EB0010616871
:101DC0004900B0FBF1F0B0FBF5F06FF018014843AB
:101DD00007EB800108EBC100B0FBF5F000F0F80064
:101DE00006EB4006FEF74CFF00EBC00101EB0010D4
:101DF00061684900B0FBF1F7FEF742FF00EBC0015C
:101E000001EB001061684900B0FBF1F0B0FBF5F0A8
:101E10006FF01801484307EB800108EBC100B0FBED
:101E2000F5F000F00700216830448860BDE8F081DB
:101E3000FEF726FF00EBC00101EB0010616889008E
:101E4000B0FBF1F6FEF71CFF00EBC00101EB001048
:101E500061688900B0FBF1F0B0FBF5F06FF018019C
:101E6000484306EB800108EB0110B0FBF5F000F0F1
:101E7000F006FEF705FF00EBC00101EB0010616802
:101E80008900B0FBF1F0B0FBF5F006EB0016FEF7B1
:101E9000F7FE00EBC00101EB001061688900B0FBA8
:101EA000F1F7FEF7EDFE00EBC00101EB00106168F9
:101EB0008900B0FBF1F0B0FBF5F06FF0180148437A
:101EC00007EB800108EB0110B0FBF5F000F00F000C
:101ED000A9E700000038014090F83910212901D00D
:101EE000022070478168B1F5805F016A0BD04A1CFF
:101EF0000262026809785160C18C491E0904090C0C
:101F0000C1840ED017E009880268C1F3080151604E
:101F100001690029016A02D0491C0162ECE7891CB1
:101F2000FBE70168CA6822F08002CA600068C168E5
:101F300041F04001C160002070472DE9F041984612
:101F400017460E460446069D1DE0681C1BD02DB1A9
:101F5000FEF776FDA0EB0800A84214D92068C168FE
:101F600021F4D071C1602068416921F00101416113
:101F7000202084F8390084F83A00002084F83800E2
:101F80000320BDE8F0812068006836EA000004D034
:101F90000020B842D9D00020F3E70120F9E7000083
:101FA0000148FFF743BB0000DC000020FEE7000013
:101FB0000FB4084B10B504A902AA039800F0DEF88C
:101FC000044602A9002000F070FC204610BC5DF819
:101FD00014FB0000AB28000802E008C8121F08C16B
:101FE000002AFAD170477047002001E001C1121F9A
:101FF000002AFBD1704700002DE9FF5F82B000216D
:10200000DDE90430020DDDF840B0034318D044F69A
:102010001050A2F2FF3242431514119801281FD02C
:10202000A5EB0B00401C5FEA000A4FF000064E4F84
:10203000DFF83891B046504615D5CAF1000413E0D8
:10204000119801244AA3012801D16FEA0B010298DB
:10205000119AC0E90031C0E9024206B0BDE8F09F24
:10206000CBF10000DFE704460021404A491842EB6B
:102070000450CDE9001012E0E00707D032463B469D
:1020800040464946FEF791F88046894632463B462F
:1020900010461946FEF789F806460F466410002CD4
:1020A000EAD1DDE90401DDE90023BAF1000F06DA27
:1020B000FEF77BF842464B46FEF777F805E0FEF761
:1020C000A8FA42464B46FEF7A4FA04460E46002202
:1020D000284BFEF725FB03D84FF0FF30014607E001
:1020E0000022254B20463146FEF7ECF9FEF700FBB7
:1020F000102409E0002C0ADB0A220023FEF71DF958
:10210000039B30321A55641E50EA0102F2D1641C5E
:10211000039AC4F111031444119A012A03D0012235
:1021200008430DD10AE0084304D000204FF0110B02
:10213000119072E7A3EB0B056D1E0DE05B4504DD0E
:102140004FF0000205F1010504E003DA4FF0000250
:10215000A5F10105002AECD002981199C0E90231DD
:10216000C0E9004579E70000000014400000F03F9E
:10217000300000000000F0430000E03F2DE9FF4F79
:1021800095B09B468946064600250FE2252877D163
:1021900000242746F84A0121059400E0044316F87C
:1021A000013F203B01FA03F01042F7D130782A2892
:1021B00011D06FF02F033078A0F13002092A16D821
:1021C000059A44F0020402EB820203EB420210443F
:1021D000761C0590EFE759F8042B0592002A03DAE4
:1021E000504244F40054059044F00204761C3078C8
:1021F0002E2816D116F8010F44F004042A280DD019
:102200006FF02F023078A0F13003092B09D807EBCB
:10221000870302EB4303C718761CF3E759F8047BE6
:10222000761C30786C280FD006DC4C2817D0682834
:102230000DD06A2814D104E0742810D07A280FD168
:102240000DE044F400140AE044F4801401E044F486
:1022500040147278824202D104F58014761C761CF8
:10226000307866280BD013DC582877D009DC00289A
:1022700075D04528F6D04628F4D047281AD19DE1DC
:1022800018E0632835D0642879D0652812D195E10B
:10229000702873D008DC6728F1D069286FD06E28C9
:1022A0000DD06F2806D1B5E073282CD0752875D0D5
:1022B000782874D05A46179990476D1C75E1C4F37D
:1022C0000250022809D003280DD0D9F800100428A4
:1022D0000DD00D6009F1040967E1D9F80010EA1783
:1022E000C1E90052F6E7D9F800100D80F2E70D7051
:1022F000F0E719F8041B8DF8001000208DF801009C
:10230000EA46012003E059F804AB4FF0FF306107C3
:102310004FF0000102D40DE008F101018846B942F6
:102320000FDA8045F8DB1AF808100029F4D108E02C
:1023300008F1010188468142FADB1AF808100029E9
:10234000F6D105985B46A0EB080721463846179A58
:1023500000F094FA284400EB080507E04DE029E17D
:102360000DE01AF8010B5A4617999047B8F1010889
:10237000F7D25B4621463846179A13E142E00A221B
:102380000092C4F302524FF0000A022A08D059F812
:1023900004CB032A4FEAEC710AD00DE029E02AE0D1
:1023A00009F1070121F00702F2E802C1914609E0B4
:1023B0000FFA8CFC4FEAEC71042A03D14FFA8CFC23
:1023C0004FEAEC71002907DA0A460021DCF1000C23
:1023D00061EB02012D2202E0220504D52B228DF8AB
:1023E0000420012203E0E20701D02022F7E7904613
:1023F00059E00A2102E010220DE010214FF0000AFE
:1024000000910BE010224FF0000A44F0040408276A
:10241000009203E008224FF0000A0092C4F3025237
:10242000022A05D059F804CB0021032A08D009E07C
:1024300009F1070121F00702F2E802C1914605E027
:102440001FFA8CFC042A01D10CF0FF0C4FF000089D
:10245000220728D5702806D0009B83F0100353EA8A
:102460000A0305D00EE040228DF80420012208E086
:102470005CEA010206D030228DF804208DF80500B8
:1024800002229046009B83F0080353EA0A030AD114
:102490005CEA010201D1620705D530228DF80420E3
:1024A0004FF001087F1E582804D034A003900EA8D6
:1024B00002900DE036A0F9E753466046009AFDF71A
:1024C0003CFF84460398825C0298401E0290027092
:1024D0005CEA0100F0D1029806A9081A00F1200A6E
:1024E000600702D524F4803400E00127574502DD5F
:1024F000A7EB0A0000E0002000EB0A01009005981D
:102500004144401A0590E00306D45B462146179AE1
:10251000059800F0B3F90544002706E001A85A46E3
:10252000C05D179990476D1C7F1C4745F6DBE003A3
:102530000CD55B462146179A059800F09FF9054493
:1025400004E030205A46179990476D1C0099481EA8
:1025500000900029F5DC08E0029802995A460078BC
:10256000491C0291179990476D1CBAF10001AAF11C
:10257000010AF1DC65E10000092801003031323345
:1025800034353637383961626364656600000000AF
:102590003031323334353637383941424344454699
:1025A0000000000000F058F90544761C307800283F
:1025B0007FF4ECAD19B02846BDE8F08F620700D477
:1025C000062709F1070222F0070CFCE80223E14686
:1025D00003F000485FEA080C02D00FF2702C0DE007
:1025E0005FEA045C02D50FF2682C07E05FEAC47C66
:1025F00002D00FF2602C01E0AFF2700C4FF0FF3808
:1026000023F00043CDF850C065280CD006DC4528E7
:1026100009D046281DD047283DD13DE0662818D076
:1026200067287ED138E00021112F01DB112000E066
:10263000781CCDE9000106A90EA8FFF7DDFCDDE955
:102640000F010E9A03910021009207F1010A0491F3
:102650004DE04FF000400097CDE9011006A90EA80B
:10266000FFF7CAFCDDE90F0203920E9B11990022CD
:10267000DDF80CA00093049211B9791C00EB010A5B
:10268000B7EB0A0004D4C0F1FF3007F1010A04904F
:10269000AAEB0700019044E0012F00DA0127002196
:1026A000112F01DD112000E03846CDE9000106A917
:1026B0000EA8FFF7A1FCDDE90F010E9A039100219E
:1026C00004910092BA4621070CD40399514500DACF
:1026D0008A46BAF1010F05DD009AAAF10101515CA9
:1026E000302908D0B84202DA10F1040F06DA0121CD
:1026F000CDE9011015E0AAF10101E9E7002805DCA8
:10270000049901440491AAEB000102E0411C5145E7
:1027100000DD8A460499401A401C01904FF00040A9
:102720000290200704D40198504501DBCDF80480C5
:1027300000208DF84F0002980DF14F07B0F1004FC7
:1027400025D02B200E9002984FF0020800280CDABA
:10275000404202902D200E9007E00A210298FDF7DA
:10276000D6FD3031029007F8011DB8F10001A8F143
:102770000108F2DC02980028EFD1791E0E9808704B
:10278000307800F0200040F0450007F8020D12A854
:10279000C01B00F107081498007800B1012000EB7D
:1027A0000A01019801EBE07105984144401A401E6E
:1027B0000590E00306D45B462146179A059800F081
:1027C0005DF805441498007818B15A461799904757
:1027D0006D1CE00324D55B462146179A059800F04E
:1027E0004DF805441CE00498002807DBDDE90301EF
:1027F000884203DD0098405C179901E0179930206A
:102800005A469047049805F10105401C0490019830
:10281000401E019004D12E205A46179990476D1CF6
:10282000BAF10001AAF1010ADDDC05E017F8010B9D
:102830005A46179990476D1CB8F10001A8F101089C
:10284000F4DC5B462146179A0598ABE62D000000A4
:102850002B000000200000002DE9F0410446002577
:102860001E461746880404D405E039462020B047A8
:102870006D1C641EF9D52846BDE8F0812DE9F041B4
:10288000044600251E469046C80301D5302700E0C7
:102890002027880404D505E041463846B0476D1C22
:1028A000641EF9D52846BDE8F0810A68531C0B6008
:1028B0001070704710B50121312000F031F800216F
:1028C0002D2000F02DF80821BDE810402D2000F04B
:1028D00027B8000031B50F4C9DF80000002240F0F1
:1028E000C0008DF8000040212046FEF7A3F86423C5
:1028F000012269460848FEF7E3FC642306220749E3
:102900000548FEF735FC012240212046FEF792F8EB
:1029100038BD0000000C014084000020140000209D
:1029200038B540F040008DF800000A4C8DF80110D9
:10293000002240212046FEF77DF8642302226946EA
:102940000548FEF7BDFC012240212046FEF772F843
:1029500038BD0000000C014084000020FEF77EF826
:10296000FFF7BBF8FEF7BCFFFFF70EF8FFF728F8FC
:10297000424841490C2201604FF416514160002148
:102980008160C160C0E904128161C161FEF7D6FEB9
:10299000FFF790FF3AA000F099F84FF4FA70FDF7B6
:1029A00059FFDFF80091404FDFF80081A9F11404CE
:1029B0003220FFF78FFFB9F900102180B9F90260CA
:1029C0006680B9F90450A5800846FDF760FC3A46D8
:1029D0004346FDF7EAFBFDF77EFCA0603046FDF7BD
:1029E00056FC3A464346FDF7E0FBFDF774FCE06019
:1029F0002846FDF74CFC3A464346FDF7D6FBFDF76B
:102A00006AFC20612AA000F061F8A068FDF750FC84
:102A100002461A480B4627A14030FFF7C9FA17486B
:102A2000403000F053F824A000F050F8E068FDF7C3
:102A30003FFC024611480B461EA14030FFF7B8FA92
:102A40000E48403000F042F81DA000F03FF8206929
:102A5000FDF72EFC024609480B4616A14030FFF751
:102A6000A7FA0648403000F031F817A000F02EF821
:102A7000C820FDF7EFFE9BE700440040DC0000208B
:102A80004C65742074686520616363656C65726F62
:102A90006D6574657220626520626C657373656430
:102AA000200A0D0014000020DE718A8EE4F27F3FC0
:102AB000583A200025660000202020593A200000C6
:102AC0002020205A3A2000000A0D000070B505466B
:102AD0000024FDF763FB86B204E0287800F006F8D6
:102AE000641C6D1CB442F8DB70BD000008B542F2F6
:102AF00010738DF80000012269460248FEF791FE2E
:102B000008BD0000DC000020000000000000000004
:102B10000102030406070809000000000102030483
:102B2000402B0008000000202C000000D81F0008E7
:102B30006C2B00082C000020FC040000E81F00089B
:102B40000000000000000000000000000000000085
:102B50000000000000000000000000000100000074
:0C2B6000100000000000000000366E01B4
:0400000508000121CD
:00000001FF
