:020000040800F2
:100000004005002035010008A3100008D70F0008A4
:10001000A1100008B1010008A915000800000000A7
:10002000000000000000000000000000C7100008F1
:10003000B301000800000000C5100008C910000846
:100040004F0100084F0100084F0100084F01000850
:100050004F0100084F0100084F0100084F01000840
:100060004F0100084F0100084F0100084F01000830
:100070004F0100084F0100084F0100084F01000820
:100080004F0100084F0100084F0100080000000068
:100090000000000000000000000000004F01000808
:1000A0004F0100084F0100084F0100084F010008F0
:1000B0004F0100084F0100084F0100084F010008E0
:1000C0004F0100084F0100084F0100084F010008D0
:1000D0004F010008911500089D1500084F01000808
:1000E0004F0100084F0100084F0100080000000008
:1000F0000000000000000000000000000000000000
:1001000000000000000000000000000000000000EF
:1001100000000000000000004F0100084F0100082F
:10012000DFF80CD000F032F800480047C91500088D
:10013000400500200648804706480047FEE7FEE7E6
:10014000FEE7FEE7FEE7FEE7FEE7FEE7FEE7FEE787
:100150001911000821010008D2B201E000F8012BBA
:10016000491EFBD270470022F6E710B513460A4637
:1001700004461946FFF7F0FF204610BD421C10F858
:10018000011B0029FBD1801A70470000064C074D67
:1001900006E0E06840F0010394E807009847103457
:1001A000AC42F6D3FFF7C0FFD4160008F4160008DF
:1001B000FEE7704710B590F821100024022903D003
:1001C0000421816301243DE001680A6822F00E02E7
:1001D0000A6001680A6822F001020A601A4A01688E
:1001E000914201D1012121E0174A1432914201D1FB
:1001F00010211BE0144A2832914201D1891515E0E3
:10020000114A3C32914201D189140FE00E4A50321A
:10021000914202D14FF4803108E00B4A643291429E
:1002200002D14FF4801101E04FF08071064A083A84
:100230005160012180F82110002180F82010416BCD
:1002400001B18847204610BD080002402DE9F84F53
:10025000DFF890A100220AF1040B144601274FF0A9
:100260000F090BF1040E00BF0B6807FA04F52B40D1
:10027000AB4274D1DFF870C14E68A6EB0C0866453E
:100280002BD00DDC032E34D005DC36B3012E19D073
:10029000022E2FD11BE0112E16D0122E2AD119E0DA
:1002A000B8F5881F19D006DCB8F5803F15D0B8F531
:1002B000801F1FD111E0B8F5001F0ED0B8F5041F44
:1002C00018D10AE0CA6815E0CA68121D12E0CA68AF
:1002D00008320FE0CA680C320CE08A682AB1012AA1
:1002E0004FF0080203D0456104E0042202E00561FA
:1002F00000E00022FF2B01D8064601E000F10406D1
:100300004FEA840501D9A5F12005D6F800C009FA05
:1003100005F82CEA080C02FA05F54CEA050CC6F8BB
:1003200000C04D68ED0057D5304DAE6946F001066E
:10033000AE61AD6924F0030605F0010500952C4D72
:1003400006EB050CDCF80850A6074FEA167809FA08
:1003500008F6B543274EB04202D1002610E03BE03C
:10036000254EB04201D101260AE0244EB04201D10F
:10037000022605E0224EB04201D1032600E0042609
:1003800006FA08F62E43CCF808604D68DAF80060EB
:10039000ED03554601D51E4300E09E432E604D6897
:1003A000DBF80060AD035D4601D51E4300E09E43CF
:1003B0002E604D68DEF80060ED02754601D51E43E3
:1003C00000E09E432E604D68AD020E4D2E6801D5B3
:1003D0001E4300E09E432E60641C102CFFF444AFCB
:1003E000BDE8F88F00040140000011100010024029
:1003F0000000014000080140000C014000100140D5
:10040000001401400C0401408068084000D0012025
:1004100070470AB1016170470904FBE70148806831
:10042000704700000000002070B504001BD094F855
:100430003D00002520B984F83C50204600F094F897
:10044000242084F83D002068016821F0010101604A
:1004500000F0D2F9404A6168914201D83F4900E07A
:100460003F49884201D2012070BD3E492368B0FB5C
:10047000F1F159606368934206D94FF4967359437A
:100480004FF47A73B1FBF3F12368491C1962616878
:10049000914210D84900401EB0FBF1F2521CC2F349
:1004A0000B02042A01D2042022E0B0FBF1F0401C30
:1004B000C0F30B001CE0A368CBB301EBC10202EB5D
:1004C0000116421EB2FBF6F2521C42F480421205A3
:1004D00036D06BB301EBC10202EB0111401EB0FB41
:1004E000F1F0401CC0F30B0040F4804040F40040A9
:1004F0002168C861D4E90701084321680860D4E98C
:100500000310084321688860D4E905010843216885
:10051000C8602068016841F0010101602564202065
:1005200084F83D00256384F83E50002070BD00E053
:1005300008E001EB4106421EB2FBF6F2521CC6E790
:100540000120D5E701EB4101401EB0FBF1F0401C5A
:10055000C0F30B00CAE70000A086010080841E00E3
:1005600000093D0040420F0010B586B00021009107
:1005700001910291039100680F4988421AD10F4CF2
:10058000A06940F00800A061A069694600F0080079
:100590000490C0200090122001900320039008488E
:1005A000FFF754FEE06940F40010E061E06900F4F8
:1005B0000010049006B010BD00540040001002402E
:1005C000000C014002488168027811448160704744
:1005D0000000002010B5032000F072F8002000F0A9
:1005E00005F800F023F8002010BD000070B50D4D97
:1005F00004464FF47A712878B1FBF0F00A49096893
:10060000B1FBF0F000F04CFB48B9102C07D20022EF
:100610002146501E00F034F800206C6070BD0120AF
:1006200070BD0000000000200C0000200C4808B540
:10063000816941F001018161816901F0010100914D
:10064000C16941F08051C161C06900F080500090E3
:100650000448416821F0E06141F00071416008BD4B
:10066000001002400000014000F01F0201219140F3
:100670004009800000F1E020C0F800117047000040
:10068000F0B40E4B1B680C46C3F30223C3F10705FD
:10069000042D00D90425191D072901D2002300E0EB
:1006A000DB1E012606FA05F1491E214099409E40B5
:1006B000761E16403143F0BC00F0F4BC0CED00E0B7
:1006C000064900F0070208684FF6FF03184040EAA9
:1006D0000220034A10430860704700000CED00E060
:1006E0000000FA052DE9F041054600683F4C8107FE
:1006F00012D5400703D5606840F4E0606060287858
:10070000000703D5606840F4605060606068A968C5
:1007100020F0F000084360602878C00743D0686884
:10072000012804D02168022804D0890703E0216849
:10073000890300E08901002902DB0120BDE8F08186
:10074000616821F0030101436160FFF767FE07461E
:10075000686841F28836012807D0022811D01EE0CF
:10076000FFF75CFEC01BB04217D86068C0F3810081
:100770000128F5D117E000BFFFF750FEC01BB042C3
:100780000BD86068C0F381000228F5D10BE000BFF0
:10079000FFF744FEC01BB04201D90320CEE76068DA
:1007A00010F00C0FF4D12878400705D56068E9688F
:1007B00020F4E060084360602878000706D5606890
:1007C000296920F4605040EAC100606000F034F80C
:1007D0006168074AC1F30311515CC84005490860CC
:1007E0000020FFF703FF0020A8E7000000100240F0
:1007F000BC1600080C000020044805490068496840
:10080000044AC1F30221515CC84070470C0000202B
:1008100000100240CC1600080448054900684968E9
:10082000044AC1F3C221515CC84070470C0000204B
:1008300000100240CC16000813A188B00FC98DE843
:100840000F0015A10DF1100C0FC98CE80F00164A0E
:100850005168164801F00C03042B10D0082B0ED160
:10086000C1F38343C9031DF803000AD5D16A04AA62
:1008700001F00F01515C0D4A5043B0FBF1F008B09C
:1008800070470B494843FAE70203040506070809C5
:100890000A0B0C0D0E0F10100102030405060708C9
:1008A000090A0B0C0D0E0F100010024000127A0006
:1008B00000093D002DE9F84F04460078B94DC00706
:1008C00048D06868C0F38100012807D06868C0F389
:1008D0008100022809D16868C00306D52868800312
:1008E00038D5606800286FD034E06068B0F5803F8C
:1008F0000BD010B1B0F5A02F11D0286820F48030B3
:100900002860286820F4802002E0286840F48030C5
:100910002860606888B1FFF781FD064609E0286815
:1009200040F480202860F0E7FFF778FD801B642802
:1009300075D828688003F7D50CE0FFF76FFD0646F1
:1009400005E000BFFFF76AFD801B6428F0D8286827
:100950008003F7D42078944E80074FF001094FF0C0
:1009600000083BD5686810F00C0F07D06868C0F32A
:100970008100022809D16868C00306D4286880076E
:1009800014D5206901281FD110E02069B0B1C6F844
:100990000090FFF743FD074605E000BFFFF73EFD6F
:1009A000C01B0228C4D828688007F7D52868616969
:1009B00020F0F80040EAC10028600FE0C6F800808F
:1009C000FFF72CFD074606E0E9E000BFFFF726FD34
:1009D000C01B022823D828688007F7D42078000796
:1009E0002CD57248A169D9B1C0F80090FFF716FD67
:1009F000074604E0FFF712FDC01B02280FD8686A03
:100A00008007F7D56A484FF4FA510068B0FBF1F05F
:100A1000009000BF0098411E0091FAD20EE080E0E5
:100A2000C0F80080FFF7FAFC074604E0FFF7F6FC89
:100A3000C01B022875D8686A8007F7D42078400761
:100A400060D5E8690027C00008D4E86940F080500C
:100A5000E861E869012700F080500090554801687E
:100A6000C90513D40168834641F480710160FFF722
:100A7000D5FC824606E000BFFFF7D0FCA0EB0A00E1
:100A800064284ED8DBF80000C005F5D5E0680128E1
:100A90000AD008B1052813D0286A20F00100286286
:100AA000286A20F0040002E0286A40F00100286271
:100AB000E06841F2883B98B1FFF7B0FC82460BE05A
:100AC000286A40F004002862EEE700BFFFF7A6FCAA
:100AD000A0EB0A0159455AD8286A8007F6D50CE0E0
:100AE000FFF79CFC824605E0FFF798FCA0EB0A01AB
:100AF00059454CD8286A8007F6D41FB1E86920F020
:100B00008050E861E06988B36968C1F38101022916
:100B100045D00228C6F8608004D0FFF77FFC044669
:100B200038E034E0FFF77AFC074604E0FFF776FC94
:100B3000C01B02282BD828688001F7D4206AB0F5A2
:100B4000803F05D1E86AA16820F00F000843E86201
:100B5000D4E908010843696821F474110843686006
:100B6000C6F86090FFF75AFC044606E015E000BFA7
:100B7000FFF754FC001B022809D828688001F7D52C
:100B80000BE000BFFFF74AFC001B022802D903203C
:100B9000BDE8F88F28688001F4D40020F8E7012030
:100BA000F6E700000010024000004242800442428A
:100BB0000C0000200070004070B5040005D0002536
:100BC000A56294F8510010B104E0012070BD2046E8
:100BD00000F02EF8022084F851002068016821F00E
:100BE00040010160D4E901010843D4E90312114333
:100BF000084361690843218B01F400710843E169EE
:100C00000843216A0843A16A084321680860A06973
:100C1000042101EA1040616A0843216848602168A4
:100C2000E06A08616565012084F85100002070BD0C
:100C300030B585B0002400940194029403940068B8
:100C40001449884223D11448816941F4805181615B
:100C5000816901F480510491816941F0040181614D
:100C600080690E4D00F004000490A0200090022046
:100C700001900320039069462846FFF7E7FA4020D9
:100C8000CDE90004694628460294FFF7DFFA05B073
:100C900030BD00000030014000100240000801405B
:100CA00010B5401EB0F1807F01D3012010BD4FF080
:100CB000E02460610F21601700F0F4F90020A061CA
:100CC00007202061002010BD7047000070B5026849
:100CD00004461068D168536910F00F0F50D003F02C
:100CE000010501F4907635435DD0C20705D0CA05F1
:100CF00003D5E26B42F00102E263420705D5DA0751
:100D000003D0E26B42F00202E263820705D5DA0704
:100D100003D0E26B42F00402E263020705D5DA0772
:100D200003D0E26B42F00802E263E26B002A33D0A8
:100D3000800604D5880602D5204600F029FA2068EE
:100D40004069E16BC0F38010090700D428B3204646
:100D500000F010FA2068416949061AD5416921F06E
:100D600040014161606BA0B11B494163606BFFF7BB
:100D700021FA002810D0606B416BBDE87040084735
:100D8000830610D58B060ED52046BDE8704000F0D6
:100D9000FFB92046FFF798FF70BD2046FFF794FF8C
:100DA0000020E06370BD030606D50B0604D520467F
:100DB000BDE8704000F088BB4006F3D54806F1D589
:100DC000D168204621F04001D160202184F83910FB
:100DD00000F000F970BD00006511000870B5040056
:100DE00004D094F83900002510B106E0012070BD50
:100DF00084F83850204600F023F8242084F8390085
:100E00002068C16821F40051C160204600F00CFA4E
:100E10002068016921F4904101612068416921F055
:100E20002A0141612068C16841F40051C160E56355
:100E3000202084F8390084F83A00002070BD0000BA
:100E400070B586B0002400940194029403942E4E51
:100E500003682E49022003222D4DB34226D18B690F
:100E600043F480438B618B6903F4804304938B6963
:100E700043F004038B618969039201F0040104913A
:100E80000102CDE9001069462846FFF7DFF9281571
:100E9000CDE90004694628460294FFF7D7F90022FD
:100EA00011462520FFF7ECFB252028E0194EB34220
:100EB00027D1CB6943F40033CB61CB6903F4003312
:100EC00004938B6943F004038B618969039201F0F9
:100ED000040104910421CDE9001069462846FFF77A
:100EE000B5F90820CDE90004694628460294FFF7C9
:100EF000ADF9002211462620FFF7C2FB2620FFF79E
:100F0000B3FB06B070BD0000003801400010024085
:100F1000000801400044004070472DE9F8430446B2
:100F200090F839001F4616460D46202850D1A5B12D
:100F30009EB194F8380001284AD0012084F8380086
:100F40004FF00008C4F83C80212084F83900FFF7F6
:100F500065FAA6848146E68426E00120BDE8F88390
:100F6000E08C401EE084A0684B46B0F5805F4FF0F7
:100F700000024FF080012046009703D000F0D5FA20
:100F8000E8B90DE000F0D1FAC8B928882168C0F3AB
:100F900008004860206908B16D1C05E0AD1C03E045
:100FA000216815F8010B4860E08C0028D8D14B4629
:100FB000002240212046009700F0B7FA08B1032034
:100FC000CCE7202084F8390084F838800020C5E779
:100FD0000220C3E77047FEE7F0B585B00024204843
:100FE0000094019402940394816941F0100181619D
:100FF000816901F010010491816941F02001816152
:10100000816901F020010491816941F0040181614D
:10101000816901F004010491816941F00801816155
:101020008069104F00F008004FF4407504900022D2
:1010300029463846FFF7EDF900950226012503966B
:10104000CDE9015469463846FFF700F9CDE900546F
:10105000CDE9024669460448FFF7F8F805B0F0BD4F
:101060000010024000100140000801400B480A49EE
:101070004FF4007201604FF4827141600021816081
:10108000C1600161C0E90512C16101624162816212
:101090000A21C162FFF790BD0030014064000020CA
:1010A000FEE770470907090E002806DA00F00F0076
:1010B00000F1E02080F8141D704700F1E02080F876
:1010C0000014704770477047FFF77CBA10B590B0B6
:1010D00028216846FFF747F814210AA8FFF743F8CC
:1010E00001210804CDE9001002240291CDE9074056
:1010F0004FF4402009906846FFF7DCFB0F20CDE954
:101100000A0490200C9000200D9001460E900AA831
:10111000FFF7E8FA10B010BD0E48016841F0010178
:10112000016041680C4A1140416001680B4A11405E
:101130000160016821F480210160416821F4FE0111
:1011400041604FF41F0181600021C1620449C00366
:1011500008607047001002400000FFF8FFFFF6FE35
:1011600008ED00E010B5406A0021C185C184FFF799
:10117000ABFD10BD0168CA6822F49072CA600168B4
:101180004A6922F001024A61202180F83A10704732
:1011900010B590F83A10222901D0022010BD8168C4
:1011A000B1F5805F11D00169002901681FD049683D
:1011B00001F07F03816A4A1C82620B70C18D491E57
:1011C0000904090CC18518D02BE00269816A002A44
:1011D0000268526805D0D2B20A80816A491C8162D5
:1011E000ECE7C2F308020A80816A891CF7E74A68C3
:1011F000816A4B1C83620A70E0E70168CA6822F0CA
:101200002002CA600168CA6822F48072CA6001685C
:101210004A6922F001024A61202180F83A10FFF762
:101220007BFE002010BD00002DE9F041044600685F
:101230000169E26821F44051114301612169A0680C
:10124000E26908436169114322680843D16849F2A1
:101250000C6399430143D16020684169A26921F47C
:10126000407111434161E1696425B1F5004F954832
:1012700021684FF032083DD081427AD1FFF7CCFA95
:1012800000EBC00101EB001061688900B0FBF1F6D2
:10129000FFF7C2FA00EBC00101EB001061688900A2
:1012A000B0FBF1F0B0FBF5F06FF01801484306EB2E
:1012B000800108EB0110B0FBF5F000F0F006FFF73D
:1012C000ABFA00EBC00101EB001061688900B0FBD4
:1012D000F1F0B0FBF5F006EB0016FFF79DFA00EB1E
:1012E000C00101EB001061688900B0FBF1F7FFF766
:1012F00093FAD0E081423DD1FFF78EFA00EBC001B6
:1013000001EB001061684900B0FBF1F0B0FBF5F0B3
:101310000601FFF781FA00EBC00101EB00106168E4
:101320004900B0FBF1F7FFF777FA00EBC00101EBE2
:10133000001061684900B0FBF1F0B0FBF5F06FF010
:101340001801484307EB800108EBC100B0FBF5F042
:1013500000F0F80006EB4006FFF75EFA00EBC00174
:1013600001EB001061684900B0FBF1F7FFF754FA98
:101370003CE055E0FFF740FA00EBC00101EB001044
:1013800061684900B0FBF1F0B0FBF5F00601FFF732
:1013900033FA00EBC00101EB001061684900B0FBBB
:1013A000F1F7FFF729FA00EBC00101EB00106168CB
:1013B0004900B0FBF1F0B0FBF5F06FF018014843C5
:1013C00007EB800108EBC100B0FBF5F000F0F8007E
:1013D00006EB4006FFF710FA00EBC00101EB00102E
:1013E00061684900B0FBF1F7FFF706FA00EBC001B6
:1013F00001EB001061684900B0FBF1F0B0FBF5F0C3
:101400006FF01801484307EB800108EBC100B0FB07
:10141000F5F000F00700216830448860BDE8F081F5
:10142000FFF7EAF900EBC00101EB001061688900E9
:10143000B0FBF1F6FFF7E0F900EBC00101EB0010A3
:1014400061688900B0FBF1F0B0FBF5F06FF01801B6
:10145000484306EB800108EB0110B0FBF5F000F00B
:10146000F006FFF7C9F900EBC00101EB001061685D
:101470008900B0FBF1F0B0FBF5F006EB0016FFF7CA
:10148000BBF900EBC00101EB001061688900B0FB03
:10149000F1F7FFF7B1F900EBC00101EB0010616853
:1014A0008900B0FBF1F0B0FBF5F06FF01801484394
:1014B00007EB800108EB0110B0FBF5F000F00F0026
:1014C000A9E700000038014090F83910212901D027
:1014D000022070478168B1F5805F016A0BD04A1C19
:1014E0000262026809785160C18C491E0904090C26
:1014F000C1840ED017E009880268C1F30801516069
:1015000001690029016A02D0491C0162ECE7891CCB
:10151000FBE70168CA6822F08002CA600068C168FF
:1015200041F04001C160002070472DE9F04198462C
:1015300017460E460446069D1DE0681C1BD02DB1C3
:10154000FEF76CFFA0EB0800A84214D92068C16820
:1015500021F4D071C1602068416921F0010141612D
:10156000202084F8390084F83A00002084F83800FC
:101570000320BDE8F0812068006836EA000004D04E
:101580000020B842D9D00020F3E70120F9E700009D
:101590000148FFF79BBB0000BC0000200148FFF79B
:1015A00095BB0000FC000020FEE702E008C8121F07
:1015B00008C1002AFAD170477047002001E001C13C
:1015C000121F002AFBD17047FFF704F8FFF77EFDDA
:1015D000FFF702FD214820494FF416550024016011
:1015E000C0E901540C26C460C0E904468461C461AA
:1015F000FFF7F4FB19481A4940300160C0E9015473
:10160000C460C0E904468461C461FFF7E7FBFFF7EB
:101610002DFD12481349AC3801601349C0E901148B
:101620004FF48041C0E9034144618461C4610462B4
:10163000FEF7FAFE0DA000F023F80F4C0F4EA51593
:1016400001212046FEF7E0FE0128F9D101222946BA
:101650003046FEF7DEFEF3E700380140BC00002014
:101660000044004000540040A0860100776173737D
:101670007570200A0D0000000008014000100140B4
:1016800070B505460024FEF779FD86B204E028789F
:1016900000F006F8641C6D1CB442F8DB70BD00005D
:1016A00008B542F210738DF8000001226946024825
:1016B000FFF733FC08BD0000FC0000200000000024
:1016C00000000000010203040607080900000000F2
:1016D00001020304F41600080000002010000000BE
:1016E000AA150008041700081000002030050000AB
:1016F000BA15000801000000100000000000000002
:0417000000366E0140
:0400000508000121CD
:00000001FF
