:020000040800F2
:100000009005002035010008E7210008331600089C
:10001000E52100084F020008A525000800000000A7
:100020000000000000000000000000000B2200089B
:100030005102000800000000092200080D220008FB
:100040004F0100084F0100084F0100084F01000850
:100050004F0100084F0100084F0100084F01000840
:100060004F0100084F0100084F0100084F01000830
:100070004F0100084F0100084F0100084F01000820
:100080004F0100084F0100084F0100080000000068
:100090000000000000000000000000004F01000808
:1000A0004F0100084F0100084F0100084F010008F0
:1000B0004F0100084F0100084F01000835160008E5
:1000C0004F010008411600084F0100084F010008C9
:1000D0004F0100084F0100084F0100084F010008C0
:1000E0004F0100084F0100084F0100080000000008
:1000F0000000000000000000000000000000000000
:1001000000000000000000000000000000000000EF
:1001100000000000000000004F0100084F0100082F
:10012000DFF80CD000F072F8004800478D2A000874
:10013000900500200648804706480047FEE7FEE796
:10014000FEE7FEE7FEE7FEE7FEE7FEE7FEE7FEE787
:100150005522000821010008202A04DB203A21FA58
:1001600002F00021704721FA02F3D040C2F12002D0
:100170009140084319467047D2B201E000F8012BC4
:10018000491EFBD270470022F6E710B513460A4617
:1001900004461946FFF7F0FF204610BD421C10F838
:1001A000011B0029FBD1801A70472DE9F05F05463D
:1001B000002092469B4688460646814640241BE026
:1001C0002846414647462246FFF7C6FF53465A4651
:1001D000C01A914110D311461846224600F028F863
:1001E0002D1A67EB01084F4622460120002100F03E
:1001F0001FF817EB00094E41201EA4F10104DFDCBB
:10020000484631462A464346BDE8F09F064C074D16
:1002100006E0E06840F0010394E8070098471034D6
:10022000AC42F6D3FFF780FF882C0008A82C00080A
:10023000202A04DB203A00FA02F1002070479140A6
:10024000C2F1200320FA03F3194390407047FEE700
:100250007047000010B590F821100024022903D047
:100260000421816301243DE001680A6822F00E0246
:100270000A6001680A6822F001020A601A4A0168ED
:10028000914201D1012121E0174A1432914201D15A
:1002900010211BE0144A2832914201D1891515E042
:1002A000114A3C32914201D189140FE00E4A50327A
:1002B000914202D14FF4803108E00B4A64329142FE
:1002C00002D14FF4801101E04FF08071064A083AE4
:1002D0005160012180F82110002180F82010416B2D
:1002E00001B18847204610BD080002402DE9F84FB3
:1002F000DFF890A100220AF1040B144601274FF009
:100300000F090BF1040E00BF0B6807FA04F52B4030
:10031000AB4274D1DFF870C14E68A6EB0C0866459D
:100320002BD00DDC032E34D005DC36B3012E19D0D2
:10033000022E2FD11BE0112E16D0122E2AD119E039
:10034000B8F5881F19D006DCB8F5803F15D0B8F590
:10035000801F1FD111E0B8F5001F0ED0B8F5041FA3
:1003600018D10AE0CA6815E0CA68121D12E0CA680E
:1003700008320FE0CA680C320CE08A682AB1012A00
:100380004FF0080203D0456104E0042202E0056159
:1003900000E00022FF2B01D8064601E000F1040630
:1003A0004FEA840501D9A5F12005D6F800C009FA65
:1003B00005F82CEA080C02FA05F54CEA050CC6F81B
:1003C00000C04D68ED0057D5304DAE6946F00106CE
:1003D000AE61AD6924F0030605F0010500952C4DD2
:1003E00006EB050CDCF80850A6074FEA167809FA68
:1003F00008F6B543274EB04202D1002610E03BE09C
:10040000254EB04201D101260AE0244EB04201D16E
:10041000022605E0224EB04201D1032600E0042668
:1004200006FA08F62E43CCF808604D68DAF800604A
:10043000ED03554601D51E4300E09E432E604D68F6
:10044000DBF80060AD035D4601D51E4300E09E432E
:100450002E604D68DEF80060ED02754601D51E4342
:1004600000E09E432E604D68AD020E4D2E6801D512
:100470001E4300E09E432E60641C102CFFF444AF2A
:10048000BDE8F88F00040140000011100010024088
:100490000000014000080140000C01400010014034
:1004A000001401400C0401400AB1016170470904C5
:1004B000FBE7000001488068704700000000002052
:1004C000704770472DE9F05F02680446D2F8188043
:1004D0005569566890F83E007449DFF8D0A1DFF8FE
:1004E000CCB1DFF8CC918F1C0AF17E0A0BF13E0BE8
:1004F000102812D0402810D00D425BD0B00559D53D
:10050000936920460021DB435B0700D501219269F6
:10051000D243120648D5828947E015F0011F05D065
:10052000B00503D5204601F024FC10E05F48801D93
:10053000054205D0B00503D5606CC0B2106106E07D
:100540000D4204D0B00502D5204601F085FB18EA23
:10055000090F14D015EA0A0F08D0700506D53D42E0
:1005600006D12046BDE8F05F01F0F2BA3D421FD04F
:10057000B0051DD52046BDE8F05F01F0A9BA15EA27
:100580000B0F08D0700506D53D4206D12046BDE8C8
:10059000F05F01F08DB93D420AD0B00508D5204684
:1005A000BDE8F05F01F020B9028B92B2FFF789FF3E
:1005B000BDE8F09F3D480E30054206D0B00504D599
:1005C0002046BDE8F05F01F001BC18EA090F4FF0CA
:1005D000280134D015EA0A0F23D0700521D53D42F9
:1005E00021D194F83D302046628D002AE0D0426A45
:1005F000541C4462046812782261428D521E428566
:10060000428D002AD4D1292BD2D10268536823F419
:10061000806353602122026380F83D1000F0A1FB4B
:10062000C6E73D42C4D0B005C2D5608D0028BFD01A
:10063000606A411C616221680078086131E015EA56
:100640000B0F22D0700520D53D4220D194F83D30CB
:100650002046648D002CABD01469426A551C45625B
:100660001470428D521E4285428D002AA0D12A2B41
:100670009ED10268536823F4806353602222026390
:1006800080F83D1000F06CFB92E73D4290D0B00541
:100690008ED5608D00288BD01169606A421C626221
:1006A0000170608D401E608582E70000020001003D
:1006B000040010007047000070B504001BD094F8CF
:1006C0003D00002520B984F83C50204600F0EEFAA9
:1006D000242084F83D002068016821F001010160B8
:1006E00000F05AFC404A6168914201D83F4900E05D
:1006F0003F49884201D2012070BD3E492368B0FBCA
:10070000F1F159606368934206D94FF496735943E7
:100710004FF47A73B1FBF3F12368491C19626168E5
:10072000914210D84900401EB0FBF1F2521CC2F3B6
:100730000B02042A01D2042022E0B0FBF1F0401C9D
:10074000C0F30B001CE0A368CBB301EBC10202EBCA
:100750000116421EB2FBF6F2521C42F48042120510
:1007600036D06BB301EBC10202EB0111401EB0FBAE
:10077000F1F0401CC0F30B0040F4804040F4004016
:100780002168C861D4E90701084321680860D4E9F9
:100790000310084321688860D4E9050108432168F3
:1007A000C8602068016841F00101016025642020D3
:1007B00084F83D00256384F83E50002070BD00E0C1
:1007C00008E001EB4106421EB2FBF6F2521CC6E7FE
:1007D0000120D5E701EB4101401EB0FBF1F0401CC8
:1007E000C0F30B00CAE70000A086010080841E0051
:1007F00000093D0040420F002DE9FF4F81B09946AE
:100800008B4604464FF00108FFF754FE054694F866
:100810003D0020287BD1192301224D492046009517
:1008200001F069FB002872D194F83C0001286ED0D9
:10083000012084F83C0020680168C90703D10168E1
:1008400041F0010101602068016821F4006101604C
:10085000242084F83D00002626643E48E0622027DC
:100860002068016841F4807101604B4600224FF01E
:1008700001112046009501F03EFB002858D1216867
:100880000BF0FE000861FFF715FE21680546486978
:100890004969C0F3400094F83D20C1F380214FF036
:1008A000A00A12E0B9F1000F04D0FFF703FE411BCC
:1008B000494501D984F83DA0216848694969C0F3D8
:1008C000400094F83D20C1F38021084301D1A02AC3
:1008D000E8D184F83D7020684169C943890717D47D
:1008E000016841F400710160206841698069192341
:1008F000012217492046009501F0FDFAC0B984F89D
:100900003D7084F83C60002005B0BDE8F08F1DE02C
:10091000016841F40071016021686FF480604861F2
:10092000192301220A492046009501F0E4FA08B192
:100930000320E9E74146039808F1010881428FD37B
:1009400084F83D7084F83C600120DDE70220DBE79D
:10095000020010000000FFFF704770477047000062
:100960002DE9F84F1F4690468A460446DDF8289048
:10097000FFF7A0FD054694F83D0020287ED11923FD
:10098000012278492046009501F0B5FA0028F5D1FA
:1009900094F83C00012871D0012084F83C002068C4
:1009A0000168C90703D1016841F0010101602068B5
:1009B000016821F400610160222084F83D001020CC
:1009C00084F83E0000262664C4F8248067856648C3
:1009D000E062608D20852B464A465146204600F055
:1009E000BEFF28B1206C84F83C60042850D073E02E
:1009F000208D5E4F68B1012814D00228206801685C
:100A00001ED041F4806101602068416980690090D6
:100A10009AE02068416981690091016841F40071A0
:100A2000016091E02068016821F48061016072B684
:100A30002068416981690091016841F400710AE010
:100A400041F40061016072B62068416981690091DA
:100A5000016821F48061016062B675E0032850D816
:100A600001280CD002284B464FF0000239462046A0
:100A7000009512D001F03FFA70BB13E070E02A46F7
:100A80004946204601F0ACFA28B1206C202823D03A
:100A90000120BDE8F88F20684BE001F02CFAD8B9AE
:100AA00072B61BE02068016821F48061016072B6B3
:100AB00020680169606A421C62620170208D401EDC
:100AC0002085608D401E60854B46002239462046B9
:100AD000009501F010FA08B10320DAE720680168F8
:100AE00041F40071016020680169606A421C626221
:100AF0000170208D401E2085608D401E608562B68D
:100B0000C9E72A464946204601F06AFA0028BCD1C6
:100B100020680169606A421C62620170208D401E7B
:100B20002085608D401E608520684169C943490762
:100B30000AD40169606A421C62620170208D401E05
:100B40002085608D401E6085208D002886D1202064
:100B500084F83D0084F83E6084F83C60002098E70B
:100B6000022096E7020010000000FFFF04000100D1
:100B70002DE9F84F1F4690468A460446DDF8289036
:100B8000FFF798FC064694F83D0020287ED11923F3
:100B9000012243492046009601F0ADF900287DD19D
:100BA00094F83C00012879D0012084F83C002068AA
:100BB0000168C90703D1016841F0010101602068A3
:100BC000016821F400610160212084F83D001020BB
:100BD00084F83E0000252564C4F8248067853148E8
:100BE000E062608D208533464A465146204600F03B
:100BF00025FF28B1206C84F83C5004284CD00DE02F
:100C0000206841698069009030E0324649462046BC
:100C100001F017FA28B1206C042838D00320BDE871
:100C2000F88F606A411C6162216800780861608DFC
:100C3000401E6085208D401E80B2208521684A6953
:100C4000D24352070BD450B1606A421C62620078F2
:100C50000861608D401E6085208D401E20853246D3
:100C60004946204601F020F90028D4D1208D0028E3
:100C7000CBD154F83D0B016841F400710160202094
:100C800004F81E09E57765770020C8E706E02068CC
:100C9000016841F4007101600120C0E70220BEE755
:100CA000020010000000FFFF7047704730B585B0AC
:100CB00000210091019102910391254D0368254C7B
:100CC000122103222448AB421DD1A36943F008033B
:100CD000A361A369039203F008030493C023CDE941
:100CE00000316946FFF702FBE06940F40010E06163
:100CF000E069002200F40010049011461F2000F06B
:100D00008FF81F2020E0154DAB421FD1A36943F09F
:100D10000803A361A369039203F0080304934FF44B
:100D20004063CDE900316946FFF7E0FAE06940F43D
:100D30008000E061E069002200F480000490114628
:100D4000212000F06DF8212000F05EF805B030BDE4
:100D50000054004000100240000C014000580040C8
:100D6000704770470248816802781144816070477B
:100D70000000002010B5032000F072F8002000F001
:100D800005F800F023F8002010BD000070B50D4DEF
:100D900004464FF47A712878B1FBF0F00A490968EB
:100DA000B1FBF0F000F04CFB48B9102C07D2002248
:100DB0002146501E00F034F800206C6070BD012008
:100DC00070BD0000000000200C0000200C4808B599
:100DD000816941F001018161816901F001010091A6
:100DE000C16941F08051C161C06900F0805000903C
:100DF0000448416821F0E06141F00071416008BDA4
:100E0000001002400000014000F01F02012191404B
:100E10004009800000F1E020C0F800117047000098
:100E2000F0B40E4B1B680C46C3F30223C3F1070555
:100E3000042D00D90425191D072901D2002300E043
:100E4000DB1E012606FA05F1491E214099409E400D
:100E5000761E16403143F0BC01F0C6B90CED00E03F
:100E6000064900F0070208684FF6FF03184040EA01
:100E70000220034A10430860704700000CED00E0B8
:100E80000000FA052DE9F041054600683F4C810756
:100E900012D5400703D5606840F4E06060602878B0
:100EA000000703D5606840F4605060606068A9681E
:100EB00020F0F000084360602878C00743D06868DD
:100EC000012804D02168022804D0890703E02168A2
:100ED000890300E08901002902DB0120BDE8F081DF
:100EE000616821F0030101436160FFF7E3FA0746FF
:100EF000686841F28836012807D0022811D01EE028
:100F0000FFF7D8FAC01BB04217D86068C0F3810061
:100F10000128F5D117E000BFFFF7CCFAC01BB042A3
:100F20000BD86068C0F381000228F5D10BE000BF48
:100F3000FFF7C0FAC01BB04201D90320CEE76068BA
:100F400010F00C0FF4D12878400705D56068E968E7
:100F500020F4E060084360602878000706D56068E8
:100F6000296920F4605040EAC100606000F034F864
:100F70006168074AC1F30311515CC8400549086024
:100F80000020FFF703FF0020A8E700000010024048
:100F9000702C00080C0000200448054900684968CE
:100FA000044AC1F30221515CC84070470C00002084
:100FB00000100240802C0008044805490068496878
:100FC000044AC1F3C221515CC84070470C000020A4
:100FD00000100240802C000813A188B00FC98DE8D2
:100FE0000F0015A10DF1100C0FC98CE80F00164A67
:100FF0005168164801F00C03042B10D0082B0ED1B9
:10100000C1F38343C9031DF803000AD5D16A04AABA
:1010100001F00F01515C0D4A5043B0FBF1F008B0F4
:1010200070470B494843FAE702030405060708091D
:101030000A0B0C0D0E0F1010010203040506070821
:10104000090A0B0C0D0E0F100010024000127A005E
:1010500000093D002DE9F84F04460078B94DC0075E
:1010600048D06868C0F38100012807D06868C0F3E1
:101070008100022809D16868C00306D5286880036A
:1010800038D5606800286FD034E06068B0F5803FE4
:101090000BD010B1B0F5A02F11D0286820F480300B
:1010A0002860286820F4802002E0286840F480301E
:1010B0002860606888B1FFF7FDF9064609E02868F6
:1010C00040F480202860F0E7FFF7F4F9801B6428E3
:1010D00075D828688003F7D50CE0FFF7EBF90646D2
:1010E00005E000BFFFF7E6F9801B6428F0D8286808
:1010F0008003F7D42078944E80074FF001094FF019
:1011000000083BD5686810F00C0F07D06868C0F382
:101110008100022809D16868C00306D428688007C6
:1011200014D5206901281FD110E02069B0B1C6F89C
:101130000090FFF7BFF9074605E000BFFFF7BAF9D7
:10114000C01B0228C4D828688007F7D528686169C1
:1011500020F0F80040EAC10028600FE0C6F80080E7
:10116000FFF7A8F9074606E0E9E000BFFFF7A2F99C
:10117000C01B022823D828688007F7D420780007EE
:101180002CD57248A169D9B1C0F80090FFF792F947
:10119000074604E0FFF78EF9C01B02280FD8686AE3
:1011A0008007F7D56A484FF4FA510068B0FBF1F0B8
:1011B000009000BF0098411E0091FAD20EE080E03E
:1011C000C0F80080FFF776F9074604E0FFF772F9F0
:1011D000C01B022875D8686A8007F7D420784007BA
:1011E00060D5E8690027C00008D4E86940F0805065
:1011F000E861E869012700F08050009055480168D7
:10120000C90513D40168834641F480710160FFF77A
:1012100051F9824606E000BFFFF74CF9A0EB0A0047
:1012200064284ED8DBF80000C005F5D5E068012839
:101230000AD008B1052813D0286A20F001002862DE
:10124000286A20F0040002E0286A40F001002862C9
:10125000E06841F2883B98B1FFF72CF982460BE039
:10126000286A40F004002862EEE700BFFFF722F989
:10127000A0EB0A0159455AD8286A8007F6D50CE038
:10128000FFF718F9824605E0FFF714F9A0EB0A0111
:1012900059454CD8286A8007F6D41FB1E86920F078
:1012A0008050E861E06988B36968C1F3810102296F
:1012B00045D00228C6F8608004D0FFF7FBF804464A
:1012C00038E034E0FFF7F6F8074604E0FFF7F2F8FD
:1012D000C01B02282BD828688001F7D4206AB0F5FB
:1012E000803F05D1E86AA16820F00F000843E8625A
:1012F000D4E908010843696821F47411084368605F
:10130000C6F86090FFF7D6F8044606E015E000BF87
:10131000FFF7D0F8001B022809D828688001F7D50C
:101320000BE000BFFFF7C6F8001B022802D903201C
:10133000BDE8F88F28688001F4D40020F8E7012088
:10134000F6E70000001002400000424280044242E2
:101350000C0000200070004070B5040005D000258E
:10136000A56294F8510010B104E0012070BD204640
:1013700000F02EF8022084F851002068016821F066
:1013800040010160D4E901010843D4E9031211438B
:10139000084361690843218B01F400710843E16946
:1013A0000843216A0843A16A084321680860A069CC
:1013B000042101EA1040616A0843216848602168FD
:1013C000E06A08616565012084F85100002070BD65
:1013D00030B585B000240094019402940394006811
:1013E0001449884223D11448816941F480518161B4
:1013F000816901F480510491816941F004018161A6
:1014000080690E4D00F004000490A020009002209E
:1014100001900320039069462846FEF767FF4020AD
:10142000CDE90004694628460294FEF75FFF05B047
:1014300030BD0000003001400010024000080140B3
:1014400010B5401EB0F1807F01D3012010BD4FF0D8
:10145000E02460610F21601700F0C6FE0020A0614B
:1014600007202061002010BD70B5040004D094F85E
:101470003900002510B106E0012070BD84F8385015
:10148000204600F023F8242084F839002068C16841
:1014900021F40051C160204600F002FF206801697C
:1014A00021F4904101612068416921F02A014161E4
:1014B0002068C16841F40051C160E563202084F8D0
:1014C000390084F83A00002070BD000070B586B085
:1014D00000240094019402940394234E036823494A
:1014E00002200322224DB34219D18B6943F4804379
:1014F0008B618B6903F4804304938B6943F004038D
:101500008B618969039201F0040104910102CDE924
:10151000001069462846FEF7E9FE28151BE0154E27
:10152000B3421FD1CB6943F40033CB61CB6903F4E1
:10153000003304938B6943F004038B618969039240
:1015400001F0040104910421CDE900106946284608
:10155000FEF7CCFE0820CDE9000469462846029437
:10156000FEF7C4FE06B070BD003801400010024016
:1015700000080140004400402DE9F843044690F87B
:1015800039001F4616460D46202850D1A5B19EB100
:1015900094F8380001284AD0012084F838004FF030
:1015A0000008C4F83C80212084F83900FEF782FF4F
:1015B000A6848146E68426E00120BDE8F883E08C1D
:1015C000401EE084A0684B46B0F5805F4FF00002FB
:1015D0004FF080012046009703D000F0B1FFE8B93A
:1015E0000DE000F0ADFFC8B928882168C0F30800FD
:1015F0004860206908B16D1C05E0AD1C03E021685E
:1016000015F8010B4860E08C0028D8D14B46002229
:1016100040212046009700F093FF08B10320CCE75B
:10162000202084F8390084F838800020C5E70220A3
:10163000C3E7FEE70148FEF745BF000010000020A9
:101640000148FEF73FBF00006400002010B5406A6B
:1016500001680A6822F480620A6000214185426BB9
:101660005163826B516390F83D302022602B80F8EB
:101670003D2080F83E1007D001680A6822F0010280
:101680000A60FFF717F810BD016401680A6822F0CC
:1016900001020A60FEF714FF10BD000070B590F85B
:1016A0003D10044600252026006829292DD02A292E
:1016B0002BD094F83D10602904D04168090501D46D
:1016C00084F83D60256384F83E50016821F4006190
:1016D000016020684168090537D5416821F400613F
:1016E0004160606B344990F82120012A12D0416397
:1016F000606BFEF7AFFD38B32068016821F001018F
:10170000016084F83D60606B1CE02563282184F84B
:101710003D10DAE7A06B4163A06BFEF79BFD98B12B
:1017200020684169C943490604D40169606A421CC2
:10173000626201702068016821F00101016084F893
:101740003D60A06B416B88470FE094F83D10602925
:101750001DD04169C943490604D40169606A421C2D
:10176000626201702046FEF7A5FF94F83D0028282C
:101770000CD1206C400709D51048E062256384F83D
:101780003D6084F83E502046FFF7E6F870BD84F8CF
:101790003D6025644169C943490604D40169606A12
:1017A000421C626201702068016821F00101016041
:1017B0002046FEF785FED8E74D1600080000FFFF23
:1017C00001684A69D24352050CD46FF480624A61C1
:1017D00004210164002140F8301F2022427301736C
:1017E000012070470020704710B5C26A448D2F4B0E
:1017F0000168032C03D0448D022C15D00AE0042A82
:1018000003D0082A01D09A4203D10A6822F48062E8
:101810000A6001680A69416A4B1C43620A70418D83
:10182000491E4185002010BD042A12D0082A10D07C
:101830009A420ED0022A0A6802D022F4806201E0A5
:1018400042F480620A6001684A6822F440724A6089
:1018500008E04A6822F440724A6001680A6842F46B
:1018600000720A6001680A69416A4B1C43620A708F
:10187000418D491E418501680A69416A4B1C4362DA
:101880000A70418D491E4185202180F83D100021BC
:10189000016390F83E2080F83E10402A02D0FFF706
:1018A0005CF8BFE7FFF700FABCE700000000FFFFAD
:1018B00010B590F83D1022294CD1418D032909D94A
:1018C00001680A69416A4B1C43620A70418D491ED6
:1018D00041853FE0022909D0032907D0C16A0229C6
:1018E00001680A6818D022F4806217E0C16A0229F0
:1018F00001680A6807D022F480620A6001680A68F9
:1019000042F4006201E042F480620A6000684168CB
:1019100021F4806141601DE042F480620A60016848
:101920004A6822F4E0624A6001680A69416A4B1C15
:1019300043620A70418D491E4185202180F83D1087
:101940000021016390F83E2080F83E10402A03D029
:10195000FFF703F8002010BDFFF7A6F9FAE72DE91D
:10196000F84F0446C06A1E4692460D4621680A6832
:1019700042F480620A60042807D0012805D010F5DF
:10198000803F02D0206B112804D12068016841F407
:10199000807101604FF001185346002241462046F5
:1019A000009600F0A8FAB8BB206908F10109B0F56B
:1019B000804F12D00620216800EAD51747F0F000CA
:1019C00008613346524608F10701204600F0C4FA88
:1019D00038B1206C04282FD01EE0E8B240F001009E
:1019E0001FE02168E8B20861334652464946204666
:1019F00000F0B2FA0028ECD12068416981690091B9
:101A0000016841F48071016053460022414620463E
:101A1000009600F070FA10B10320BDE8F88F47F08F
:101A2000F10021680861334652464946204600F0DD
:101A300093FA0028CDD1F0E70120EEE7F8B504468F
:101A4000C06A1E460D461746042807D0012805D057
:101A500010F5803F02D0206B122804D12068016865
:101A600041F480710160134600224FF001112046BD
:101A7000009600F040FAA0B92069B0F5804F12D06E
:101A80000620216800EAD51040F0F00008613346D6
:101A90003A460E49204600F05FFA38B1206C04281F
:101AA00011D00320F8BD05F0FE0000E0E8B2216887
:101AB0000861064933463A46891F204600F04CFA31
:101AC0000028EBD1F8BD0120F8BD0000080001009E
:101AD00010B5C26A90F83D10212921D1418D49B13C
:101AE000416A4A1C4262026809781161418D491EAF
:101AF000418515E020230021042A13D0082A11D0A3
:101B000012F5803F0ED00268546824F4E0645460FB
:101B10001122026380F83E1080F83D30FEF71EFF70
:101B2000002010BD0268546824F4E0645460026828
:101B3000146844F400741460016380F83D3090F838
:101B40003E2080F83E10402AE8D1FFF7AEF8E7E7E4
:101B500010B590F83D1090F83E30C26A048D24B163
:101B6000212934D0402B30D074E02129FAD1202310
:101B70000021042A13D0082A11D012F5803F0ED07C
:101B80000268546824F4E06454601122026380F80F
:101B90003E1080F83D3000BFFEF7E0FE5AE00268DC
:101BA000546824F4E06454600268146844F40074D7
:101BB0001460016380F83D3090F83E2080F83E10BC
:101BC000402AE9D1FFF771F844E0222942D1418D42
:101BD00021B190F83E10402906D032E000684168FB
:101BE00021F48061416035E0016D31B1016D012961
:101BF00011D0016D022915D02CE0C16C0129816C36
:101C000002D0C1F3072108E00268C9B21161016D79
:101C1000891C01651EE0816CC9B202681161016D09
:101C2000491CF6E790F83D10222904D090F83D10A9
:101C3000212906D00EE00068016841F4807101603E
:101C400008E0416A4A1C4262026809781161418DCC
:101C5000491E4185002010BD78B590F83E50C26AFB
:101C6000046B90F83D6000230168222E06D1066DBA
:101C70000EB9402D02D0056D25B107E0486988698D
:101C800000901CE00569B5F5404F1AD0458D85B32D
:101C9000458D012D20D0428D022A4AD00A6842F497
:101CA00080620A6001684A68120503D54A6842F4F6
:101CB00080524A6001684A69896900910365002081
:101CC00078BD4A698A6900920A6842F480720A60A3
:101CD000016D491C0165F2E712F5803F0AD0042A24
:101CE00021D0082A1FD0122C1DD0C26A022A09D185
:101CF00014E00BE00A6822F480620A6001684A6816
:101D0000120503D50A6822F480620AE04A698A69EA
:101D100000920A6842F400720A60CFE70A6842F44F
:101D200080620A60C6E70A6822F480620A6001687D
:101D3000ECE7C26A022A0A680BD042F400620A6029
:101D400001684A698A6900920A6822F480620A601E
:101D500006E042F480620A6001684A69896900917C
:101D600001684A681205A9D54A6842F480524A605F
:101D7000A4E790F83E10402909D00169B1F5804FE1
:101D800010D0016D99B1016D012915D01CE0016DD4
:101D900019B9416C01F0FE0114E0416CC9B241F087
:101DA00001010FE090F83D102129F6D1F1E7416CD7
:101DB000F02201F4407103E0416CF12201F4407122
:101DC00042EAD111006801610020704738B590F8EF
:101DD0003D2001684B6823F4E0634B6003680021F9
:101DE0005C6900941C6844F001041C6003681C6872
:101DF00024F480641C6003685C6824050BD590F8AB
:101E00003D40222C2BD090F83D402A2C27D0446B0B
:101E1000246864684485448DE4B15C69E4436407E4
:101E200007D41C69436A5D1C45621C70438D5B1EB0
:101E3000438503685C69E443640607D41C69436A0C
:101E40005D1C45621C70438D5B1E4385036C43F033
:101E500004030364036C23B1FFF720FC1FE0846BD1
:101E6000D6E72023282A09D02A2A07D0292A05D0F4
:101E7000046B222C0CD0222A0AD010E0094AC2623C
:101E8000016380F83D3080F83E10FEF765FD06E006
:101E9000016380F83D3080F83E10FEF761FF0020BE
:101EA00038BD00000000FFFF70B516460D46044621
:101EB0001AE02046FFF784FC08B1012070BD681CC1
:101EC00012D025B1FEF7F6FA801BA8420CD954F8BF
:101ED000400F40F0200044F810090020206020212D
:101EE00061732073032070BD20684069C0434007C0
:101EF000DFD4002070BD2DE9F0471E4690460D4608
:101F00000446C1F30747DDF8209012E0701C10D0A2
:101F10002EB1FEF7CFFAA0EB0900B04209D900209C
:101F200044F8300F20216173A07320730320BDE8B3
:101F3000F0872068012F0AD0806925EA000000049C
:101F4000000C06D000214145E0D00020EFE74069B9
:101F5000F3E70121F7E700002DE9F0479A469146A3
:101F60000D46044600264FF02008C1F307472AE03B
:101F700020684069C043400512D42068016841F4DC
:101F80000071016021686FF4806048610420206462
:101F9000266384F83D8084F83C600120BDE8F0872A
:101FA000B9F1FF3F0FD0B9F1000F05D0FEF782FA6B
:101FB000A0EB0A01494506D944F8306F84F80D803A
:101FC00026730320EAE72068012F07D0D0F8180015
:101FD00025EA00000004000CE0D0C9E74069F7E7FB
:101FE0002DE9F041002590460E460446202721E0C9
:101FF0004069C043C0060CD421686FF010004861EE
:102000002564256384F83D7084F83C500120BDE8C8
:10201000F0812EB1FEF74EFAA0EB0800B04209D9CC
:1020200054F8400F40F0200044F804096770257010
:102030000320ECE720684169C9434906D8D4002051
:10204000E5E770B516460D4604461AE02046FFF750
:10205000B7FB08B1012070BD681C12D025B1FEF796
:1020600029FA801BA8420CD954F8400F40F02000F8
:1020700044F81009002020602021617320730320A0
:1020800070BD20684069C0430006DFD4002070BDE9
:10209000F0B587B005466B2075218DF804008DF8EA
:1020A0001410D02700268DF805600523022239463A
:1020B0002846FEF7A1FBA8BB4FF47A74012305AABA
:1020C000394628460094FEF753FD58BB012304AA65
:1020D000394628460094FEF743FC18BB022301AAA8
:1020E000394628460094FEF743FDD8B919208DF8EB
:1020F000080071208DF80900022302AA39462846FB
:102100000094FEF735FD0028F6D11C208DF80C0058
:102110008DF80D60022303AA394628460094FEF785
:1021200027FD10B1012007B0F0BD9DF81000FAE7BF
:1021300070B586B000241C48009401940294039466
:10214000816941F010018161816901F01001049100
:10215000816941F020018161816901F020010491D0
:10216000816941F004018161816901F004010491F8
:10217000816941F00801816180690C4E00F008001E
:102180004FF440750490002229463046FEF78CF942
:1021900001200095CDE901040220039069463046F4
:1021A000FEF7A4F806B070BD001002400010014018
:1021B0000B480A494FF4007201604FF4827141608C
:1021C00000218160C1600161C0E90512C161016245
:1021D000416281620A21C162FFF7BEB8003001404E
:1021E000B8000020FEE770470907090E002806DA4C
:1021F00000F00F0000F1E02080F8141D704700F19E
:10220000E02080F80014704770477047FEF7AABDC1
:1022100010B590B028216846FDF7B5FF14210AA833
:10222000FDF7B1FF0220009001200490102000244F
:10223000059007946846FEF70DFF0F20CDE90A04CC
:102240000C940D9400210AA80E94FEF71BFE10B00A
:1022500010BD00000E48016841F0010101604168B5
:102260000C4A1140416001680B4A1140016001684D
:1022700021F480210160416821F4FE0141604FF4A6
:102280001F0181600021C1620449C00308607047DA
:10229000001002400000FFF8FFFFF6FE08ED00E02E
:1022A0002DE9F041044600680169E26821F44051DB
:1022B000114301612169A068E26908436169114322
:1022C00022680843D16849F20C6399430143D16005
:1022D00020684169A26921F4407111434161E169BB
:1022E0006425B1F5004F954821684FF032083DD084
:1022F00081427AD1FEF760FE00EBC00101EB0010D5
:1023000061688900B0FBF1F6FEF756FE00EBC001F4
:1023100001EB001061688900B0FBF1F0B0FBF5F053
:102320006FF01801484306EB800108EB0110B0FB89
:10233000F5F000F0F006FEF73FFE00EBC00101EB08
:10234000001061688900B0FBF1F0B0FBF5F006EB1E
:102350000016FEF731FE00EBC00101EB00106168D2
:102360008900B0FBF1F7FEF727FED0E081423DD1B6
:10237000FEF722FE00EBC00101EB0010616849008E
:10238000B0FBF1F0B0FBF5F00601FEF715FE00EB37
:10239000C00101EB001061684900B0FBF1F7FEF7E6
:1023A0000BFE00EBC00101EB001061684900B0FBBF
:1023B000F1F0B0FBF5F06FF01801484307EB800136
:1023C00008EBC100B0FBF5F000F0F80006EB4006AA
:1023D000FEF7F2FD00EBC00101EB0010616849005F
:1023E000B0FBF1F7FEF7E8FD3CE055E0FEF7D4FD69
:1023F00000EBC00101EB001061684900B0FBF1F097
:10240000B0FBF5F00601FEF7C7FD00EBC00101EBE4
:10241000001061684900B0FBF1F7FEF7BDFD00EB6D
:10242000C00101EB001061684900B0FBF1F0B0FBA6
:10243000F5F06FF01801484307EB800108EBC1008D
:10244000B0FBF5F000F0F80006EB4006FEF7A4FD47
:1024500000EBC00101EB001061684900B0FBF1F72F
:10246000FEF79AFD00EBC00101EB00106168490026
:10247000B0FBF1F0B0FBF5F06FF01801484307EB4B
:10248000800108EBC100B0FBF5F000F00700216807
:1024900030448860BDE8F081FEF77EFD00EBC001AE
:1024A00001EB001061688900B0FBF1F6FEF774FDE6
:1024B00000EBC00101EB001061688900B0FBF1F096
:1024C000B0FBF5F06FF01801484306EB800108EB14
:1024D0000110B0FBF5F000F0F006FEF75DFD00EB3B
:1024E000C00101EB001061688900B0FBF1F0B0FBA6
:1024F000F5F006EB0016FEF74FFD00EBC00101EB17
:10250000001061688900B0FBF1F7FEF745FD00EBB4
:10251000C00101EB001061688900B0FBF1F0B0FB75
:10252000F5F06FF01801484307EB800108EB01104C
:10253000B0FBF5F000F00F00A9E700000038014003
:102540002DE9F041984617460E460446069D1DE0CB
:10255000681C1BD02DB1FDF7ADFFA0EB0800A84211
:1025600014D92068C16821F4D071C1602068416924
:1025700021F001014161202084F8390084F83A00FB
:10258000002084F838000320BDE8F081206800684E
:1025900036EA000004D00020B842D9D00020F3E78A
:1025A0000120F9E7FEE700000FB4084B10B504A9BD
:1025B00002AA039800F01CF8044602A9002000F0CB
:1025C00077F9204610BC5DF814FB0000B128000824
:1025D00002E008C8121F08C1002AFAD170477047EC
:1025E000002001E001C1121F002AFBD1704700004A
:1025F0002DE9FF4F8DB09B460F460446002606E0AE
:1026000025280BD05A460F999047641C761C2078D9
:102610000028F5D111B03046BDE8F08F0025A8465E
:102620000122984900E0054314F8013F203B02FADB
:1026300003F00842F7D120782E2817D114F8010FA3
:1026400045F004052A280ED06FF02F022078A0F163
:10265000300109290AD808EB880102EB410100EB9F
:102660000108641CF2E757F8048B641C20786C287E
:102670000DD004DC4C2812D06A2811D104E0742853
:102680000DD07A280CD10AE045F4001507E06178F6
:1026900045F48015814202D1641C05F58015641C47
:1026A0002278692A45D008DC002AB3D0582A69D09C
:1026B000632A10D0642A08D13BE0702A67D0732ABD
:1026C00013D0752A5CD0782A5CD010465A460F99F0
:1026D0009047761CD3E017F8040B8DF8000000201B
:1026E0008DF80100E946012003E057F8049B4FF004
:1026F000FF3069074FF0000501D40AE06D1C454525
:102700000DDA8542FADB19F805100029F6D106E04A
:102710006D1C8542FCDB19F805100029F8D12E4408
:1027200004E019F8010B5A460F9990476D1EF8D234
:10273000A5E00A200021CDE90801C5F302500228D6
:102740000DD001CFC117031E71F100030DDA4FF058
:10275000000CD0EB0C006CEB01012D2308E0FF1DF9
:1027600027F00707F7E80201EDE72B0504D52B2337
:102770008DF8283001233BE0EB0739D02023F7E721
:102780000A2000E010200021CDE9080107E0102018
:10279000002145F00405CDE908014FF00808C5F314
:1027A000025002280FD001CF00214FF0000A2B0762
:1027B0001FD5702A0DD0DDE908C38CF0100C5CEA3F
:1027C000030C0CD015E0FF1D27F00707F7E8020106
:1027D000EBE740228DF828204FF0010A0BE050EA89
:1027E000010306D030238DF828308DF829200223EC
:1027F0009A46582A04D024A20DF120090B9209E030
:1028000026A2F9E7DDE90823FDF7CFFC0B9B9B5CD3
:1028100009F8013D50EA0102F4D1ADEB0900203086
:102820000890680701D44FF001080899884502DD37
:10283000A8EB010000E000208046002506E00AA881
:102840005A46405D0F9990476D1C761C5545F6DB46
:1028500004E030205A460F999047761CB8F10001E9
:10286000A8F10108F5DC05E019F8010B5A460F99AB
:102870009047761C0899481E08900029F4DC641CD7
:10288000C5E60000092801003031323334353637CF
:1028900038396162636465660000000030313233AC
:1028A000343536373839414243444546000000004C
:1028B0000A68531C0B601070704700002DE9FC4142
:1028C00005460A2602208DF80460D0278DF8050001
:1028D0004FF47A74034601AA394628460094FEF75D
:1028E00047F910B12CA000F047F90B208DF8040037
:1028F0004E208DF80500022301AA3946284600948F
:10290000FEF736F910B12BA000F036F967208DF8EC
:10291000040001208DF80500022301AA394628464B
:102920000094FEF725F910B12AA000F025F9242023
:102930008DF804008DF80560022301AA3946284667
:102940000094FEF715F910B12BA000F015F919202D
:102950008DF80400FF208DF80500022301AA3946F6
:1029600028460094FEF704F910B12AA000F004F9FB
:102970001A208DF8040005208DF80500022301AA15
:10298000394628460094FEF7F3F8002802D021A02B
:1029900000F0F2F8BDE8FC814572726F7220736539
:1029A0007474696E67205A415F4F46465345545FC1
:1029B000480000004572726F722073657474696E0E
:1029C00067205A415F4F46465345545F4C5F54431E
:1029D000000000004572726F722073657474696E36
:1029E00067204932435F4D53545F44454C41595F22
:1029F0004354524C000000004572726F72207365A0
:102A00007474696E67204932435F4D53545F435479
:102A1000524C00004572726F722073657474696E57
:102A20006720534D504C52545F44495600000000FB
:102A300070B586B004463B208DF81000D0264FF4C8
:102A40007A75012304AA314620460095FEF790F8D6
:102A500038B9062301AA314620460095FDF780FFCC
:102A600010B1012006B070BD9DF808008DF80C0073
:102A70009DF809008DF80D00022103A800F0CEF8A2
:102A800001A000F079F8EDE70A0D0000FEF772F9F9
:102A9000FFF7BEFBFFF74CFB2C482B492C4D0024C5
:102AA0000160C0E901540E14C0E903464461846129
:102AB000C4610462FDF700FE2448264954380160D1
:102AC000C0E90154C0E9034644618461C461046201
:102AD000FDF7F2FD1D482049AC304FF4E1350160AF
:102AE000C0E901540C26C460C0E904468461C46195
:102AF000FEF7BAFC15481949EC300160C0E90154F1
:102B0000C460C0E904468461C461FEF7ADFCFFF710
:102B10004FFB13A000F030F80C485438FFF7B8FA18
:102B200004460A485438FFF7C9FE204600F092F8E0
:102B3000064801230DA27021543800F02DF80348F7
:102B40005438FFF775FFFAE7005800406400002092
:102B5000A0860100005400400038014000440040BD
:102B6000776173737570200A0D00000057484F5F3E
:102B7000414D5F490000000070B505460024FDF797
:102B80000DFB86B204E0287800F064F8641C6D1C2C
:102B9000B442F8DB70BD00002DE9FF418AB01D464C
:102BA0009046D0264FF47A74074601230BAA31468B
:102BB0000094FDF7DDFF10B101208DF80400ABB2E9
:102BC00001AA314638460094FDF7CAFE0028F6D126
:102BD0000AA0FFF7D1FF4046FFF7CEFF9DF8042083
:102BE0000BA103A8FFF7E0FC03A8FFF7C5FF0AA0AD
:102BF000FFF7C2FF0EB0BDE8F081000052656164CE
:102C0000696E6720726567697374657220000000E1
:102C100030782558000000000A0D000070B50E46FF
:102C20000546002404E0287800F006F8641C6D1CBA
:102C3000B442F8DB70BD000008B542F210738DF8A5
:102C40000000012269460248FEF796FC08BD00001C
:102C50005001002008B542F210738DF800000122E7
:102C600069460248FEF788FC08BD000050010020BC
:102C7000000000000000000001020304060708092C
:102C80000000000001020304A82C0008000000203E
:102C900010000000D0250008B82C0008100000200B
:102CA00080050000E0250008010000001000000081
:082CB0000000000000366E0177
:0400000508000121CD
:00000001FF
