:020000040800F2
:1000000040050020350100089F1F0008AF1A0008B6
:100010009D1F0008E7070008A52400080000000055
:10002000000000000000000000000000C31F0008E6
:10003000E907000800000000C11F0008C51F0008F4
:100040004F0100084F0100084F0100084F01000850
:100050004F0100084F0100084F0100084F01000840
:100060004F0100084F0100084F0100084F01000830
:100070004F0100084F0100084F0100084F01000820
:100080004F0100084F0100084F0100080000000068
:100090000000000000000000000000004F01000808
:1000A0004F0100084F0100084F0100084F010008F0
:1000B0004F0100084F0100084F0100084F010008E0
:1000C0004F0100084F0100084F0100084F010008D0
:1000D0004F0100088D240008992400084F010008F2
:1000E0004F0100084F0100084F0100080000000008
:1000F0000000000000000000000000000000000000
:1001000000000000000000000000000000000000EF
:1001100000000000000000004F0100084F0100082F
:10012000DFF80CD000F02CFB00480047E52F00085A
:10013000400500200648804706480047FEE7FEE7E6
:10014000FEE7FEE7FEE7FEE7FEE7FEE7FEE7FEE787
:100150001520000821010008202A04DB203A21FA9A
:1001600002F00021704721FA02F3D040C2F12002D0
:100170009140084319467047D2B201E000F8012BC4
:10018000491EFBD270470022F6E710B513460A4617
:1001900004461946FFF7F0FF204610BD421C10F838
:1001A000011B0029FBD1801A704770B521F0004374
:1001B00003430CD0C1F30A550024D5EB040564EBCE
:1001C0000403D617AD1AB34102DB0020014670BD0F
:1001D000201841EB025170BD0EB5C10F80EAE070EE
:1001E0000844CA07002140F233438DE80E000A4656
:1001F0000B4600F0BEF803B000BD00F0004230F046
:1002000000400AD0C10D01F56071C0F3160042EA4A
:100210000151C20840071143704700200146704752
:1002200001F0004330B421F0004150EA010206D051
:100230000A0DA2F56072C1F31301002A02DC30BC82
:1002400000207047440F44EAC104C100E01830BCEC
:1002500000EBC25000F047B830B50B460146002015
:100260002022012409E021FA02F59D4205D303FA78
:1002700002F5491B04FA02F52844151EA2F10102F9
:10028000F1DC30BD2DE9F05F0546002092469B462B
:1002900088460646814640241BE02846414647469C
:1002A0002246FFF759FF53465A46C01A914110D3D0
:1002B00011461846224600F075FA2D1A67EB010820
:1002C0004F4622460120002100F06CFA17EB00098E
:1002D0004E41201EA4F10104DFDC484631462A4687
:1002E0004346BDE8F09F0029A8BF7047401C490065
:1002F00008BF20F00100704710B4B0FA80FC00FA8B
:100300000CF050EA010404BF10BC704749B1CCF1B5
:10031000200421FA04F411FA0CF118BF0121214341
:100320000843A3EB0C01CB1D4FEA00614FEA1020FC
:1003300042BF002010BC704700EBC350104400299E
:10034000A4BF10BC7047401C490008BF20F001004A
:1003500010BC704710B5141E73F1000408DA401C7D
:1003600041F1000192185B411A4301D120F00100D4
:1003700010BD2DE9F04D92469B4611B1B1FA81F2C4
:1003800002E0B0FA80F22032904600F00BFA044608
:100390000F4640EA0A0041EA0B0153465A46084319
:1003A00013D0114653EA010019D0C8F1400250465B
:1003B000FFF7D2FE05460E4650465946424600F02B
:1003C000F1F9084305D0012004E020463946BDE894
:1003D000F08D0020054346EAE0762C4337430A9827
:1003E0006305E40AA0EB08000022FD0A44EA475432
:1003F0000A3002D500200146E9E7010510196941DC
:10040000DDE9084500196941BDE8F04DA2E72DE995
:10041000FE4F804681EA0300C00F0C46009021F099
:10042000004123F00045B8EB0200A94105D2404647
:10043000214690461C460B46024623F000401043DE
:1004400047D0270DC7F30A00C3F30A510290401AA0
:10045000019040286BDAC3F3130040F4801B00982E
:10046000924620B10023D2EB030A63EB0B0B0198F9
:100470005946C0F14002504600F094F906460D4638
:1004800050465946019A00F09CF910EB0800614172
:10049000002487EA115284EAE7731A4340D0009A95
:1004A00062B3019A012A4FEA075215DC001B61EB87
:1004B00002014FF0004202EA0752CDE90042001C5F
:1004C00041F5801132462B46FFF753FF03B0BDE8DC
:1004D000F08F40462146F9E7001B61EB0201001C4A
:1004E00041F5801300185B412018A2F5001747EB77
:1004F000030140EAD570B6196D4111E06D084FEA6D
:10050000360645EAC0754FEA0752001B61EB02014F
:10051000001C41F5801149084FEA30000019514193
:1005200032462B4603B0BDE8F04FFFF713BF0098EB
:10053000012240000023D0EB020263EBE07300983D
:1005400021464FEAE074B8EB000061EB0401E9E7F3
:1005500083F000435BE781F0004158E72DE9FE4F4F
:1005600081EA030404F0004421F0004100944FF0BC
:10057000000B23F0004350EA01045ED052EA03046A
:100580005BD0C3F30A54C1F30A552C44A4F2F334EC
:100590000194A0FB0254C1F3130141F48011C3F391
:1005A000130343F4801301FB024400FB034E840A4F
:1005B000970A44EA815447EA8357A4FB07680295E7
:1005C0008D0A05FB07854FEA932C04FB0C54270585
:1005D000029D4FEA065847EA1637B5EB08056EEB61
:1005E000070C870E920E47EA811742EA8312A7FB97
:1005F0000201B6EB0B0164EB00042B0D43EA0C3354
:100600005E1844EB1C50DA465146E7FB0201C5F385
:1006100013044FEA0B3343EA14534FEA0432019CAC
:1006200043EA0603A4F10C040294009CCDE900B453
:10063000FFF79FFE03B0BDE8F08F00200146F9E709
:100640002DE9F04D81EA030404F0004B21F0004550
:1006500014464FF0000A23F0004150EA050220D072
:1006600054EA01021DD0C5F30A570246C5F313032D
:10067000C1F31300C1F30A5640F4801543F480130C
:10068000A7EB0608101BD64608F2FD3873EB0500F1
:1006900002D308F1010801E092185B41B8F1000FA4
:1006A00003DA00200146BDE8F08D00204FF48011F0
:1006B000064684460EE0171B73EB050705D3121B95
:1006C00063EB050306434CEA010C49084FEA30008E
:1006D00092185B4150EA0107EDD152EA030012D0B3
:1006E00082EA040083EA0501084305D0101BAB41F0
:1006F00006D20122002306E000224FF0004302E070
:100700006FF0010253101AEB06004CEB085110EB8E
:100710000A0041EB0B01BDE8F04DFFF71BBEC1F332
:100720000A52C1F3130140F2FF3341F480119A429F
:1007300002DA00200146704740F233439A42A2F2A7
:10074000334202DC5242FFF707BD00F02BB8000035
:1007500030B5041E71F1000404DB4FF00044404248
:1007600064EB0101141E73F1000405DB1C464FF01D
:100770000043524263EB0403994208BF904230BDEC
:10078000064C074D06E0E06840F0010394E80700DE
:1007900098471034AC42F6D3FFF7C6FCEC300008A3
:1007A0000C310008202A04DB203A00FA02F1002074
:1007B00070479140C2F1200320FA03F3194390409F
:1007C0007047202A06DBCB17203A41FA02F043EAB1
:1007D000E07306E041FA02F3D040C2F120029140FA
:1007E000084319467047FEE77047000010B590F8BF
:1007F00021100024022903D00421816301243DE05B
:1008000001680A6822F00E020A6001680A6822F094
:1008100001020A601A4A0168914201D1012121E0D6
:10082000174A1432914201D110211BE0144A283298
:10083000914201D1891515E0114A3C32914201D112
:1008400089140FE00E4A5032914202D14FF48031A8
:1008500008E00B4A6432914202D14FF4801101E06A
:100860004FF08071064A083A5160012180F821104A
:10087000002180F82010416B01B18847204610BD4F
:10088000080002402DE9F84FDFF890A100220AF19C
:10089000040B144601274FF00F090BF1040E00BFA3
:1008A0000B6807FA04F52B40AB4274D1DFF870C136
:1008B0004E68A6EB0C0866452BD00DDC032E34D019
:1008C00005DC36B3012E19D0022E2FD11BE0112EDC
:1008D00016D0122E2AD119E0B8F5881F19D006DCDF
:1008E000B8F5803F15D0B8F5801F1FD111E0B8F5DD
:1008F000001F0ED0B8F5041F18D10AE0CA6815E031
:10090000CA68121D12E0CA6808320FE0CA680C32C9
:100910000CE08A682AB1012A4FF0080203D0456131
:1009200004E0042202E0056100E00022FF2B01D870
:10093000064601E000F104064FEA840501D9A5F15D
:100940002005D6F800C009FA05F82CEA080C02FACE
:1009500005F54CEA050CC6F800C04D68ED0057D50A
:10096000304DAE6946F00106AE61AD6924F0030674
:1009700005F0010500952C4D06EB050CDCF8085040
:10098000A6074FEA167809FA08F6B543274EB04293
:1009900002D1002610E03BE0254EB04201D10126F5
:1009A0000AE0244EB04201D1022605E0224EB042B8
:1009B00001D1032600E0042606FA08F62E43CCF8FF
:1009C00008604D68DAF80060ED03554601D51E4316
:1009D00000E09E432E604D68DBF80060AD035D468D
:1009E00001D51E4300E09E432E604D68DEF8006096
:1009F000ED02754601D51E4300E09E432E604D6812
:100A0000AD020E4D2E6801D51E4300E09E432E60C0
:100A1000641C102CFFF444AFBDE8F88F00040140C3
:100A200000001110001002400000014000080140C9
:100A3000000C014000100140001401400C04014072
:100A40000AB1016170470904FBE7000001488068B2
:100A5000704700000000002070B504001BD094F81F
:100A60003D00002520B984F83C50204600F0E8FA0B
:100A7000242084F83D002068016821F00101016014
:100A800000F026FC404A6168914201D83F4900E0ED
:100A90003F49884201D2012070BD3E492368B0FB26
:100AA000F1F159606368934206D94FF49673594344
:100AB0004FF47A73B1FBF3F12368491C1962616842
:100AC000914210D84900401EB0FBF1F2521CC2F313
:100AD0000B02042A01D2042022E0B0FBF1F0401CFA
:100AE000C0F30B001CE0A368CBB301EBC10202EB27
:100AF0000116421EB2FBF6F2521C42F4804212056D
:100B000036D06BB301EBC10202EB0111401EB0FB0A
:100B1000F1F0401CC0F30B0040F4804040F4004072
:100B20002168C861D4E90701084321680860D4E955
:100B30000310084321688860D4E90501084321684F
:100B4000C8602068016841F001010160256420202F
:100B500084F83D00256384F83E50002070BD00E01D
:100B600008E001EB4106421EB2FBF6F2521CC6E75A
:100B70000120D5E701EB4101401EB0FBF1F0401C24
:100B8000C0F30B00CAE70000A086010080841E00AD
:100B900000093D0040420F002DE9FF4F81B099460A
:100BA0008B4604464FF00108FFF750FF054694F8C6
:100BB0003D0020287BD1192301224D492046009574
:100BC00001F06BF8002872D194F83C0001286ED037
:100BD000012084F83C0020680168C90703D101683E
:100BE00041F0010101602068016821F400610160A9
:100BF000242084F83D00002626643E48E062202739
:100C00002068016841F4807101604B4600224FF07A
:100C100001112046009501F040F8002858D12168C4
:100C20000BF0FE000861FFF711FF216805464869D7
:100C30004969C0F3400094F83D20C1F380214FF092
:100C4000A00A12E0B9F1000F04D0FFF7FFFE411B2C
:100C5000494501D984F83DA0216848694969C0F334
:100C6000400094F83D20C1F38021084301D1A02A1F
:100C7000E8D184F83D7020684169C943890717D4D9
:100C8000016841F40071016020684169806919239D
:100C9000012217492046009500F0FFFFC0B984F8F3
:100CA0003D7084F83C60002005B0BDE8F08F1DE089
:100CB000016841F40071016021686FF4806048614F
:100CC000192301220A492046009500F0E6FF08B1E9
:100CD0000320E9E74146039808F1010881428FD3D8
:100CE00084F83D7084F83C600120DDE70220DBE7FA
:100CF000020010000000FFFF2DE9F84F1F4690464C
:100D00008A460446DDF82890FFF7A0FE054694F8D1
:100D10003D0020287ED119230122784920460095E4
:100D200000F0BBFF0028F5D194F83C00012871D0F9
:100D3000012084F83C0020680168C90703D10168DC
:100D400041F0010101602068016821F40061016047
:100D5000222084F83D00102084F83E0000262664FE
:100D6000C4F8248067856648E062608D20852B4644
:100D70004A465146204600F0AFFE28B1206C84F868
:100D80003C60042850D073E0208D5E4F68B101288C
:100D900014D00228206801681ED041F480610160EF
:100DA00020684169806900909AE020684169816902
:100DB0000091016841F40071016091E020680168D0
:100DC00021F48061016072B62068416981690091F7
:100DD000016841F400710AE041F40061016072B6FB
:100DE0002068416981690091016821F48061016096
:100DF00062B675E0032850D801280CD002284B4673
:100E00004FF0000239462046009512D000F045FF11
:100E100070BB13E070E02A464946204600F0B2FF5E
:100E200028B1206C202823D00120BDE8F88F20684D
:100E30004BE000F032FFD8B972B61BE020680168C1
:100E400021F48061016072B620680169606A421C09
:100E500062620170208D401E2085608D401E60857D
:100E60004B46002239462046009500F016FF08B197
:100E70000320DAE72068016841F40071016020680E
:100E80000169606A421C62620170208D401E2085EB
:100E9000608D401E608562B6C9E72A4649462046F5
:100EA00000F070FF0028BCD120680169606A421C14
:100EB00062620170208D401E2085608D401E60851D
:100EC00020684169C94349070AD40169606A421C24
:100ED00062620170208D401E2085608D401E6085FD
:100EE000208D002886D1202084F83D0084F83E60C3
:100EF00084F83C60002098E7022096E7020010008A
:100F00000000FFFF040001002DE9F84F1F46904646
:100F10008A460446DDF82890FFF798FD064694F8C7
:100F20003D0020287ED11923012243492046009606
:100F300000F0B3FE00287DD194F83C00012879D060
:100F4000012084F83C0020680168C90703D10168CA
:100F500041F0010101602068016821F40061016035
:100F6000212084F83D00102084F83E0000252564EF
:100F7000C4F8248067853148E062608D208533465F
:100F80004A465146204600F017FE28B1206C84F8EE
:100F90003C5004284CD00DE02068416980690090E5
:100FA00030E032464946204600F01DFF28B1206C53
:100FB000042838D00320BDE8F88F606A411C6162C4
:100FC000216800780861608D401E6085208D401E7C
:100FD00080B2208521684A69D24352070BD450B1B0
:100FE000606A421C626200780861608D401E608504
:100FF000208D401E208532464946204600F026FEC0
:101000000028D4D1208D0028CBD154F83D0B0168A5
:1010100041F400710160202004F81E09E57765772E
:101020000020C8E706E02068016841F40071016013
:101030000120C0E70220BEE7020010000000FFFF11
:1010400010B586B0002100910191029103910068D2
:101050000F4988421AD10F4CA06940F00800A061E6
:10106000A069694600F008000490C020009012209A
:101070000190032003900848FFF704FCE06940F466
:101080000010E061E06900F40010049006B010BDAB
:101090000054004000100240000C014002488168EA
:1010A00002781144816070470000002010B50320D1
:1010B00000F072F8002000F005F800F023F800209E
:1010C00010BD000070B50D4D04464FF47A712878BC
:1010D000B1FBF0F00A490968B1FBF0F000F04CFBFD
:1010E00048B9102C07D200222146501E00F034F8D7
:1010F00000206C6070BD012070BD00000000002069
:101100000C0000200C4808B5816941F001018161A3
:10111000816901F001010091C16941F08051C16113
:10112000C06900F0805000900448416821F0E061FF
:1011300041F00071416008BD001002400000014014
:1011400000F01F02012191404009800000F1E020E1
:10115000C0F8001170470000F0B40E4B1B680C463D
:10116000C3F30223C3F10705042D00D90425191D7B
:10117000072901D2002300E0DB1E012606FA05F153
:10118000491E214099409E40761E16403143F0BCD6
:1011900000F006BF0CED00E0064900F00702086809
:1011A0004FF6FF03184040EA0220034A104308604C
:1011B000704700000CED00E00000FA052DE9F04159
:1011C000054600683F4C810712D5400703D560688B
:1011D00040F4E06060602878000703D5606840F460
:1011E000605060606068A96820F0F00008436060AB
:1011F0002878C00743D06868012804D021680228F5
:1012000004D0890703E02168890300E089010029EF
:1012100002DB0120BDE8F081616821F00301014398
:101220006160FFF713FC0746686841F288360128C1
:1012300007D0022811D01EE0FFF708FCC01BB04207
:1012400017D86068C0F381000128F5D117E000BF0E
:10125000FFF7FCFBC01BB0420BD86068C0F38100F5
:101260000228F5D10BE000BFFFF7F0FBC01BB04236
:1012700001D90320CEE7606810F00C0FF4D1287874
:10128000400705D56068E96820F4E06008436060C5
:101290002878000706D56068296920F4605040EA84
:1012A000C100606000F034F86168074AC1F30311BF
:1012B000515CC840054908600020FFF703FF00208B
:1012C000A8E7000000100240D43000080C00002005
:1012D0000448054900684968044AC1F30221515C89
:1012E000C84070470C00002000100240E4300008A5
:1012F0000448054900684968044AC1F3C221515CA9
:10130000C84070470C00002000100240E430000884
:1013100013A188B00FC98DE80F0015A10DF1100CB5
:101320000FC98CE80F00164A5168164801F00C03EB
:10133000042B10D0082B0ED1C1F38343C9031DF831
:1013400003000AD5D16A04AA01F00F01515C0D4ACD
:101350005043B0FBF1F008B070470B494843FAE73F
:1013600002030405060708090A0B0C0D0E0F1010E6
:101370000102030405060708090A0B0C0D0E0F10E5
:101380000010024000127A0000093D002DE9F84FDC
:1013900004460078B94DC00748D06868C0F38100A2
:1013A000012807D06868C0F38100022809D1686865
:1013B000C00306D52868800338D5606800286FD040
:1013C00034E06068B0F5803F0BD010B1B0F5A02FCD
:1013D00011D0286820F480302860286820F480200C
:1013E00002E0286840F480302860606888B1FFF728
:1013F0002DFB064609E0286840F480202860F0E7CD
:10140000FFF724FB801B642875D828688003F7D574
:101410000CE0FFF71BFB064605E000BFFFF716FBDD
:10142000801B6428F0D828688003F7D42078944E75
:1014300080074FF001094FF000083BD5686810F0B5
:101440000C0F07D06868C0F38100022809D16868D2
:10145000C00306D42868800714D5206901281FD14D
:1014600010E02069B0B1C6F80090FFF7EFFA074628
:1014700005E000BFFFF7EAFAC01B0228C4D82868BD
:101480008007F7D52868616920F0F80040EAC100BC
:1014900028600FE0C6F80080FFF7D8FA074606E09C
:1014A000E9E000BFFFF7D2FAC01B022823D8286862
:1014B0008007F7D4207800072CD57248A169D9B1EC
:1014C000C0F80090FFF7C2FA074604E0FFF7BEFA43
:1014D000C01B02280FD8686A8007F7D56A484FF406
:1014E000FA510068B0FBF1F0009000BF0098411E77
:1014F0000091FAD20EE080E0C0F80080FFF7A6FA73
:10150000074604E0FFF7A2FAC01B022875D8686AF4
:101510008007F7D42078400760D5E8690027C0002D
:1015200008D4E86940F08050E861E869012700F0DC
:101530008050009055480168C90513D4016883465E
:1015400041F480710160FFF781FA824606E000BF36
:10155000FFF77CFAA0EB0A0064284ED8DBF8000005
:10156000C005F5D5E06801280AD008B1052813D0D8
:10157000286A20F001002862286A20F0040002E0B6
:10158000286A40F001002862E06841F2883B98B187
:10159000FFF75CFA82460BE0286A40F004002862FC
:1015A000EEE700BFFFF752FAA0EB0A0159455AD8FF
:1015B000286A8007F6D50CE0FFF748FA824605E076
:1015C000FFF744FAA0EB0A0159454CD8286A800776
:1015D000F6D41FB1E86920F08050E861E06988B373
:1015E0006968C1F38101022945D00228C6F86080EC
:1015F00004D0FFF72BFA044638E034E0FFF726FA70
:10160000074604E0FFF722FAC01B02282BD82868FF
:101610008001F7D4206AB0F5803F05D1E86AA1685F
:1016200020F00F000843E862D4E908010843696824
:1016300021F4741108436860C6F86090FFF706FA59
:10164000044606E015E000BFFFF700FA001B022881
:1016500009D828688001F7D50BE000BFFFF7F6F93D
:10166000001B022802D90320BDE8F88F28688001FA
:10167000F4D40020F8E70120F6E700000010024053
:1016800000004242800442420C00002000700040F2
:1016900070B5040005D00025A56294F8510010B182
:1016A00004E0012070BD204600F02EF8022084F8EE
:1016B00051002068016821F040010160D4E9010176
:1016C0000843D4E903121143084361690843218B9D
:1016D00001F400710843E1690843216A0843A16AE3
:1016E000084321680860A069042101EA1040616A8A
:1016F0000843216848602168E06A08616565012047
:1017000084F85100002070BD30B585B000240094ED
:1017100001940294039400681449884223D1144828
:10172000816941F480518161816901F480510491A2
:10173000816941F00401816180690E4D00F004006F
:101740000490A0200090022001900320039069469D
:101750002846FFF797F84020CDE90004694628465F
:101760000294FFF78FF805B030BD00000030014053
:10177000001002400008014010B5401EB0F1807F0B
:1017800001D3012010BD4FF0E02460610F216017EC
:1017900000F006FC0020A06107202061002010BDA1
:1017A0007047000070B5026804461068D16853693C
:1017B00010F00F0F50D003F0010501F4907635437F
:1017C0005DD0C20705D0CA0503D5E26B42F0010225
:1017D000E263420705D5DA0703D0E26B42F002026A
:1017E000E263820705D5DA0703D0E26B42F0040218
:1017F000E263020705D5DA0703D0E26B42F0080284
:10180000E263E26B002A33D0800604D5880602D555
:10181000204600F03BFC20684069E16BC0F380107B
:10182000090700D428B3204600F022FC2068416953
:1018300049061AD5416921F040014161606BA0B1B0
:101840001B494163606BFEF7D1FF002810D0606B2D
:10185000416BBDE870400847830610D58B060ED556
:101860002046BDE8704000F011BC2046FFF798FF0D
:1018700070BD2046FFF794FF0020E06370BD0306B3
:1018800006D50B0604D52046BDE8704000F09ABD91
:101890004006F3D54806F1D5D168204621F0400135
:1018A000D160202184F8391000F000F970BD0000EB
:1018B0006120000870B5040004D094F839000025B8
:1018C00010B106E0012070BD84F83850204600F0C9
:1018D00023F8242084F839002068C16821F40051DD
:1018E000C160204600F01EFC2068016921F490418F
:1018F00001612068416921F02A0141612068C168C5
:1019000041F40051C160E563202084F8390084F877
:101910003A00002070BD000070B586B0002400942D
:101920000194029403942E4E03682E490220032250
:101930002D4DB34226D18B6943F480438B618B6973
:1019400003F4804304938B6943F004038B6189693A
:10195000039201F0040104910102CDE900106946EF
:101960002846FEF78FFF2815CDE900046946284672
:101970000294FEF787FF002211462520FFF7ECFBBB
:10198000252028E0194EB34227D1CB6943F4003318
:10199000CB61CB6903F4003304938B6943F00403F8
:1019A0008B618969039201F0040104910421CDE95E
:1019B000001069462846FEF765FF0820CDE90004BF
:1019C000694628460294FEF75DFF00221146262054
:1019D000FFF7C2FB2620FFF7B3FB06B070BD000087
:1019E000003801400010024000080140004400405F
:1019F00070472DE9F843044690F839001F46164613
:101A00000D46202850D1A5B19EB194F83800012888
:101A10004AD0012084F838004FF00008C4F83C8018
:101A2000212084F83900FFF711F8A6848146E68466
:101A300026E00120BDE8F883E08C401EE084A06829
:101A40004B46B0F5805F4FF000024FF0800120461A
:101A5000009703D000F0E7FCE8B90DE000F0E3FCEC
:101A6000C8B928882168C0F308004860206908B117
:101A70006D1C05E0AD1C03E0216815F8010B486002
:101A8000E08C0028D8D14B46002240212046009708
:101A900000F0C9FC08B10320CCE7202084F839000D
:101AA00084F838800020C5E70220C3E77047FEE7CE
:101AB00001684A69D24352050CD46FF480624A61CE
:101AC00004210164002140F8301F20224273017379
:101AD00001207047002070472DE9F84F0446C06A86
:101AE0001E4692460D4621680A6842F480620A60EA
:101AF000042807D0012805D010F5803F02D0206BC4
:101B0000112804D12068016841F4807101604FF010
:101B100001185346002241462046009600F0BDF8C9
:101B2000B8BB206908F10109B0F5804F12D006203A
:101B3000216800EAD51747F0F000086133465246A5
:101B400008F10701204600F0D9F838B1206C0428CC
:101B50002FD01EE0E8B240F001001FE02168E8B29B
:101B60000861334652464946204600F0C7F800282F
:101B7000ECD12068416981690091016841F480716C
:101B800001605346002241462046009600F085F849
:101B900010B10320BDE8F88F47F0F100216808611B
:101BA000334652464946204600F0A8F80028CDD1D9
:101BB000F0E70120EEE70000F8B50446C06A1E46D3
:101BC0000D461746042807D0012805D010F5803FA0
:101BD00002D0206B122804D12068016841F4807182
:101BE0000160134600224FF001112046009600F0DC
:101BF00054F8A0B92069B0F5804F12D006202168B2
:101C000000EAD51040F0F000086133463A460E492C
:101C1000204600F073F838B1206C042811D003205E
:101C2000F8BD05F0FE0000E0E8B221680861064951
:101C300033463A46891F204600F060F80028EBD171
:101C4000F8BD0120F8BD00000800010070B516467F
:101C50000D4604461AE02046FFF72AFF08B101208E
:101C600070BD681C12D025B1FEF7F0FE801BA842A3
:101C70000CD954F8400F40F0200044F8100900201F
:101C80002060202161732073032070BD20684069AB
:101C9000C0434007DFD4002070BD2DE9F0471E4649
:101CA00090460D460446C1F30747DDF8209012E048
:101CB000701C10D02EB1FEF7C9FEA0EB0900B04297
:101CC00009D9002044F8300F20216173A0732073DC
:101CD0000320BDE8F0872068012F0AD0806925EA3B
:101CE00000000004000C06D000214145E0D0002097
:101CF000EFE74069F3E70121F7E700002DE9F0473E
:101D00009A4691460D46044600264FF02008C1F33E
:101D100007472AE020684069C043400512D4206884
:101D2000016841F40071016021686FF480604861CE
:101D300004202064266384F83D8084F83C60012000
:101D4000BDE8F087B9F1FF3F0FD0B9F1000F05D022
:101D5000FEF77CFEA0EB0A01494506D944F8306F36
:101D600084F80D8026730320EAE72068012F07D04E
:101D7000D0F8180025EA00000004000CE0D0C9E704
:101D80004069F7E72DE9F041002590460E460446EC
:101D9000202721E04069C043C0060CD421686FF0C1
:101DA000100048612564256384F83D7084F83C5038
:101DB0000120BDE8F0812EB1FEF748FEA0EB08003F
:101DC000B04209D954F8400F40F0200044F804090B
:101DD000677025700320ECE720684169C943490614
:101DE000D8D40020E5E770B516460D4604461AE043
:101DF0002046FFF75DFE08B1012070BD681C12D0BF
:101E000025B1FEF723FE801BA8420CD954F8400FE1
:101E100040F0200044F81009002020602021617368
:101E20002073032070BD20684069C0430006DFD4E2
:101E3000002070BDF0B587B005466B2075218DF888
:101E400004008DF81410D02700268DF805600523B6
:101E5000022239462846FEF79FFEA8BB4FF47A744B
:101E6000012305AA394628460094FFF74DF858BBD0
:101E7000012304AA394628460094FEF73DFF18BB0B
:101E8000022301AA394628460094FFF73DF8D8B945
:101E900019208DF8080071208DF80900022302AA8C
:101EA000394628460094FFF72FF80028F6D11C2069
:101EB0008DF80C008DF80D60022303AA39462846E0
:101EC0000094FFF721F810B1012007B0F0BD9DF894
:101ED0001000FAE7F0B585B0002420480094019482
:101EE00002940394816941F010018161816901F0DC
:101EF00010010491816941F020018161816901F043
:101F000020010491816941F004018161816901F03E
:101F100004010491816941F0080181618069104FD9
:101F200000F008004FF4407504900022294638461E
:101F3000FEF786FD0095022601250396CDE90154A2
:101F400069463846FEF79EFCCDE90054CDE90246CD
:101F500069460448FEF796FC05B0F0BD001002404B
:101F600000100140000801400B480A494FF400727C
:101F700001604FF48271416000218160C1600161A4
:101F8000C0E90512C1610162416281620A21C16238
:101F9000FFF77EBB0030014064000020FEE7704781
:101FA0000907090E002806DA00F00F0000F1E02012
:101FB00080F8141D704700F1E02080F8001470478D
:101FC00070477047FFF76AB810B590B0282168468F
:101FD000FEF7D9F814210AA8FEF7D5F80121080464
:101FE000CDE9001002240291CDE907404FF44020D2
:101FF00009906846FFF7CAF90F20CDE90A0490203E
:102000000C9000200D9001460E900AA8FFF7D6F81C
:1020100010B010BD0E48016841F001010160416837
:102020000C4A1140416001680B4A1140016001688F
:1020300021F480210160416821F4FE0141604FF4E8
:102040001F0181600021C1620449C003086070471C
:10205000001002400000FFF8FFFFF6FE08ED00E070
:1020600010B5406A0021C185C184FFF799FB10BDFE
:102070000168CA6822F49072CA6001684A6922F055
:1020800001024A61202180F83A10704710B590F89B
:102090003A10222901D0022010BD8168B1F5805F7D
:1020A00011D00169002901681FD0496801F07F0340
:1020B000816A4A1C82620B70C18D491E0904090C99
:1020C000C18518D02BE00269816A002A0268526833
:1020D00005D0D2B20A80816A491C8162ECE7C2F362
:1020E00008020A80816A891CF7E74A68816A4B1CEA
:1020F00083620A70E0E70168CA6822F02002CA60C1
:102100000168CA6822F48072CA6001684A6922F0D4
:1021100001024A61202180F83A10FFF769FC002093
:1021200010BD00002DE9F041044600680169E26835
:1021300021F44051114301612169A068E26908431B
:102140006169114322680843D16849F20C639943DD
:102150000143D16020684169A26921F440711143B3
:102160004161E1696425B1F5004F954821684FF060
:1021700032083DD081427AD1FFF7BAF800EBC001B6
:1021800001EB001061688900B0FBF1F6FFF7B0F8D1
:1021900000EBC00101EB001061688900B0FBF1F0B9
:1021A000B0FBF5F06FF01801484306EB800108EB37
:1021B0000110B0FBF5F000F0F006FFF799F800EB26
:1021C000C00101EB001061688900B0FBF1F0B0FBC9
:1021D000F5F006EB0016FFF78BF800EBC00101EB02
:1021E000001061688900B0FBF1F7FFF781F8D0E0DB
:1021F00081423DD1FFF77CF800EBC00101EB0010FC
:1022000061684900B0FBF1F0B0FBF5F00601FFF7A3
:102210006FF800EBC00101EB001061684900B0FBF2
:10222000F1F7FFF765F800EBC00101EB0010616802
:102230004900B0FBF1F0B0FBF5F06FF01801484336
:1022400007EB800108EBC100B0FBF5F000F0F800EF
:1022500006EB4006FFF74CF800EBC00101EB001065
:1022600061684900B0FBF1F7FFF742F83CE055E048
:10227000FFF72EF800EBC00101EB00106168490088
:10228000B0FBF1F0B0FBF5F00601FFF721F800EB31
:10229000C00101EB001061684900B0FBF1F7FFF7E6
:1022A00017F800EBC00101EB001061684900B0FBBA
:1022B000F1F0B0FBF5F06FF01801484307EB800137
:1022C00008EBC100B0FBF5F000F0F80006EB4006AB
:1022D000FEF7FEFF00EBC00101EB00106168490052
:1022E000B0FBF1F7FEF7F4FF00EBC00101EB0010CB
:1022F00061684900B0FBF1F0B0FBF5F06FF0180138
:10230000484307EB800108EBC100B0FBF5F000F09B
:102310000700216830448860BDE8F081FEF7D8FFEF
:1023200000EBC00101EB001061688900B0FBF1F621
:10233000FEF7CEFF00EBC00101EB001061688900E1
:10234000B0FBF1F0B0FBF5F06FF01801484306EB7D
:10235000800108EB0110B0FBF5F000F0F006FEF78D
:10236000B7FF00EBC00101EB001061688900B0FB12
:10237000F1F0B0FBF5F006EB0016FEF7A9FF00EB5D
:10238000C00101EB001061688900B0FBF1F7FEF7B6
:102390009FFF00EBC00101EB001061688900B0FBFA
:1023A000F1F0B0FBF5F06FF01801484307EB800146
:1023B00008EB0110B0FBF5F000F00F00A9E70000FA
:1023C0000038014090F83910212901D002207047CF
:1023D0008168B1F5805F016A0BD04A1C0262026815
:1023E00009785160C18C491E0904090CC1840ED0C2
:1023F00017E009880268C1F30801516001690029EA
:10240000016A02D0491C0162ECE7891CFBE7016804
:10241000CA6822F08002CA600068C16841F04001C9
:10242000C160002070472DE9F041984617460E46DE
:102430000446069D1DE0681C1BD02DB1FEF706FB6F
:10244000A0EB0800A84214D92068C16821F4D0711B
:10245000C1602068416921F001014161202084F8B8
:10246000390084F83A00002084F838000320BDE8E1
:10247000F0812068006836EA000004D00020B842ED
:10248000D9D00020F3E70120F9E700000148FFF769
:1024900089B90000BC0000200148FFF783B90000A3
:1024A000FC000020FEE700000FB4084B10B504A9A3
:1024B00002AA039800F0DEF8044602A9002000F00A
:1024C00070FC204610BC5DF814FB0000A32D000832
:1024D00002E008C8121F08C1002AFAD170477047ED
:1024E000002001E001C1121F002AFBD1704700004B
:1024F0002DE9FF5F82B00021DDE90430020DDDF837
:1025000040B0034318D044F61050A2F2FF324243C9
:102510001514119801281FD0A5EB0B00401C5FEA91
:10252000000A4FF000064E4FDFF83891B046504693
:1025300015D5CAF1000413E0119801244AA301281B
:1025400001D16FEA0B010298119AC0E90031C0E98C
:10255000024206B0BDE8F09FCBF10000DFE7044681
:102560000021404A491842EB0450CDE9001012E026
:10257000E00707D032463B4640464946FDF7EEFFAE
:102580008046894632463B4610461946FDF7E6FF2F
:1025900006460F466410002CEAD1DDE90401DDE9AE
:1025A0000023BAF1000F06DAFDF7D8FF42464B468A
:1025B000FDF7D4FF05E0FEF743F842464B46FEF731
:1025C0003FF804460E460022284BFEF7C1F803D818
:1025D0004FF0FF30014607E00022254B20463146F0
:1025E000FDF715FFFEF79BF8102409E0002C0ADB2D
:1025F0000A220023FDF746FE039B30321A55641E63
:1026000050EA0102F2D1641C039AC4F1110314448C
:10261000119A012A03D0012208430DD10AE0084390
:1026200004D000204FF0110B119072E7A3EB0B05C3
:102630006D1E0DE05B4504DD4FF0000205F1010564
:1026400004E003DA4FF00002A5F10105002AECD006
:1026500002981199C0E90231C0E9004579E700000C
:10266000000014400000F03F300000000000F04384
:102670000000E03F2DE9FF4F95B09B468946064696
:1026800000250FE2252877D100242746F84A0121AA
:10269000059400E0044316F8013F203B01FA03F0E3
:1026A0001042F7D130782A2811D06FF02F033078FC
:1026B000A0F13002092A16D8059A44F0020402EB70
:1026C000820203EB42021044761C0590EFE759F8B2
:1026D000042B0592002A03DA504244F4005405907A
:1026E00044F00204761C30782E2816D116F8010F1B
:1026F00044F004042A280DD06FF02F023078A0F1A6
:102700003003092B09D807EB870302EB4303C718F3
:10271000761CF3E759F8047B761C30786C280FD0D0
:1027200006DC4C2817D068280DD06A2814D104E0A4
:10273000742810D07A280FD10DE044F400140AE078
:1027400044F4801401E044F440147278824202D1CF
:1027500004F58014761C761C307866280BD013DCC8
:10276000582877D009DC002875D04528F6D04628AF
:10277000F4D047281AD19DE118E0632835D06428A9
:1027800079D0652812D195E1702873D008DC6728CC
:10279000F1D069286FD06E280DD06F2806D1B5E032
:1027A00073282CD0752875D0782874D05A4617997C
:1027B00090476D1C75E1C4F30250022809D003282C
:1027C0000DD0D9F8001004280DD00D6009F10409CE
:1027D00067E1D9F80010EA17C1E90052F6E7D9F825
:1027E00000100D80F2E70D70F0E719F8041B8DF86A
:1027F000001000208DF80100EA46012003E059F89E
:1028000004AB4FF0FF3061074FF0000102D40DE040
:1028100008F101018846B9420FDA8045F8DB1AF861
:1028200008100029F4D108E008F10101884681422E
:10283000FADB1AF808100029F6D105985B46A0EBE0
:10284000080721463846179A00F094FA284400EB0E
:10285000080507E04DE029E10DE01AF8010B5A46A2
:1028600017999047B8F10108F7D25B4621463846E0
:10287000179A13E142E00A220092C4F302524FF089
:10288000000A022A08D059F804CB032A4FEAEC7157
:102890000AD00DE029E02AE009F1070121F0070242
:1028A000F2E802C1914609E00FFA8CFC4FEAEC71A4
:1028B000042A03D14FFA8CFC4FEAEC71002907DAA5
:1028C0000A460021DCF1000C61EB02012D2202E03E
:1028D000220504D52B228DF80420012203E0E20713
:1028E00001D02022F7E7904659E00A2102E01022A9
:1028F0000DE010214FF0000A00910BE010224FF084
:10290000000A44F004040827009203E008224FF074
:10291000000A0092C4F30252022A05D059F804CBEF
:102920000021032A08D009E009F1070121F007027C
:10293000F2E802C1914605E01FFA8CFC042A01D19D
:102940000CF0FF0C4FF00008220728D5702806D0A5
:10295000009B83F0100353EA0A0305D00EE04022E7
:102960008DF80420012208E05CEA010206D0302242
:102970008DF804208DF8050002229046009B83F01C
:10298000080353EA0A030AD15CEA010201D1620793
:1029900005D530228DF804204FF001087F1E5828FD
:1029A00004D034A003900EA802900DE036A0F9E701
:1029B00053466046009AFDF765FC84460398825CA6
:1029C0000298401E029002705CEA0100F0D1029869
:1029D00006A9081A00F1200A600702D524F4803401
:1029E00000E00127574502DDA7EB0A0000E00020C8
:1029F00000EB0A01009005984144401A0590E0035D
:102A000006D45B462146179A059800F0B3F90544B1
:102A1000002706E001A85A46C05D179990476D1C33
:102A20007F1C4745F6DBE0030CD55B462146179A31
:102A3000059800F09FF9054404E030205A461799A4
:102A400090476D1C0099481E00900029F5DC08E0B5
:102A5000029802995A460078491C029117999047AA
:102A60006D1CBAF10001AAF1010AF1DC65E1000078
:102A70000928010030313233343536373839616254
:102A80006364656600000000303132333435363718
:102A900038394142434445460000000000F058F9EF
:102AA0000544761C307800287FF4ECAD19B0284638
:102AB000BDE8F08F620700D4062709F1070222F073
:102AC000070CFCE80223E14603F000485FEA080C2B
:102AD00002D00FF2702C0DE05FEA045C02D50FF219
:102AE000682C07E05FEAC47C02D00FF2602C01E0A2
:102AF000AFF2700C4FF0FF3823F00043CDF850C018
:102B000065280CD006DC452809D046281DD047286A
:102B10003DD13DE0662818D067287ED138E00021FD
:102B2000112F01DB112000E0781CCDE9000106A97E
:102B30000EA8FFF7DDFCDDE90F010E9A03910021DD
:102B4000009207F1010A04914DE04FF00040009718
:102B5000CDE9011006A90EA8FFF7CAFCDDE90F02B6
:102B600003920E9B11990022DDF80CA000930492B1
:102B700011B9791C00EB010AB7EB0A0004D4C0F1CB
:102B8000FF3007F1010A0490AAEB0700019044E02E
:102B9000012F00DA01270021112F01DD112000E0B3
:102BA0003846CDE9000106A90EA8FFF7A1FCDDE932
:102BB0000F010E9A0391002104910092BA46210759
:102BC0000CD40399514500DA8A46BAF1010F05DDAC
:102BD000009AAAF10101515C302908D0B84202DA0A
:102BE00010F1040F06DA0121CDE9011015E0AAF178
:102BF0000101E9E7002805DC049901440491AAEBEE
:102C0000000102E0411C514500DD8A460499401A4A
:102C1000401C01904FF000400290200704D401981E
:102C2000504501DBCDF8048000208DF84F0002985C
:102C30000DF14F07B0F1004F25D02B200E900298D8
:102C40004FF0020800280CDA404202902D200E902E
:102C500007E00A210298FDF7FFFA3031029007F8E9
:102C6000011DB8F10001A8F10108F2DC029800286A
:102C7000EFD1791E0E980870307800F0200040F0F7
:102C8000450007F8020D12A8C01B00F107081498B0
:102C9000007800B1012000EB0A01019801EBE0711E
:102CA00005984144401A401E0590E00306D45B4657
:102CB0002146179A059800F05DF8054414980078AD
:102CC00018B15A46179990476D1CE00324D55B460E
:102CD0002146179A059800F04DF805441CE0049829
:102CE000002807DBDDE90301884203DD0098405C32
:102CF000179901E0179930205A469047049805F13A
:102D00000105401C04900198401E019004D12E2022
:102D10005A46179990476D1CBAF10001AAF1010AB1
:102D2000DDDC05E017F8010B5A46179990476D1C3A
:102D3000B8F10001A8F10108F4DC5B462146179ABE
:102D40000598ABE62D0000002B00000020000000DD
:102D50002DE9F041044600251E461746880404D498
:102D600005E039462020B0476D1C641EF9D5284681
:102D7000BDE8F0812DE9F041044600251E4690464D
:102D8000C80301D5302700E02027880404D505E0DA
:102D900041463846B0476D1C641EF9D52846BDE84B
:102DA000F0810A68531C0B60107070477CB50546B3
:102DB0000A208DF804000720D0268DF805004FF476
:102DC0007A74022301AA314628460094FEF79CF843
:102DD00010B135A000F060F90B208DF804005B20E5
:102DE0008DF80500022301AA314628460094FEF71B
:102DF0008BF810B133A000F04FF919208DF80400C2
:102E000009208DF80500022301AA314628460094C6
:102E1000FEF77AF810B133A000F03EF91C208DF8CF
:102E2000040018208DF80500022301AA3146284627
:102E30000094FEF769F810B131A000F02DF91A20C6
:102E40008DF8040002208DF80500034601AA3146E2
:102E500028460094FEF758F810B130A000F01CF995
:102E600037208DF8040030208DF80500022301AAD8
:102E7000314628460094FEF747F810B12DA000F027
:102E80000BF938208DF8040001208DF8050002238D
:102E900001AA314628460094FEF736F8002802D0F1
:102EA0002BA000F0F9F87CBD4572726F722073653B
:102EB0007474696E67205A415F4F46465345545FAC
:102EC000480000004572726F722073657474696EF9
:102ED00067205A415F4F46465345545F4C5F544309
:102EE000000000004572726F722073657474696E21
:102EF0006720534D504C52545F4449560000000027
:102F00004572726F722073657474696E67204143F5
:102F100043454C5F434F4E46494700004572726F30
:102F2000722073657474696E6720434F4E4649473B
:102F3000000000004572726F722073657474696ED0
:102F40006720494E545F50494E5F4346470000009A
:102F50004572726F722073657474696E6720494E92
:102F6000545F454E41424C450000000070B58CB0A6
:102F700004463B208DF80C00D0264FF47A750123CF
:102F800003AA314620460095FDF7BEFF38B9062357
:102F900001AA314620460095FDF7AEFE10B1012092
:102FA0000CB070BDBDF8080040BA00B2FDF714F9CE
:102FB0006FF00A02FDF7F9F8FDF732F9FDF71DF998
:102FC00002460B4605A104A8FFF76EFA04A800F01C
:102FD00063F803A000F060F8E2E700002566000057
:102FE0000A0D0000FEF762F8FEF7EEFFFEF772FF33
:102FF000224821494FF4E13500240160C0E9015421
:103000000C26C460C0E904468461C461FEF752FC2A
:103010001A481B4940300160C0E90154C460C0E94E
:1030200004468461C461FEF745FCFEF79DFF13482A
:103030001449AC3801601449C0E901144FF48041CF
:10304000C0E9034144618461C4610462FDF704FD89
:103050000EA000F021F80948AC38FEF7EBFE04465C
:103060000648AC38FFF7A2FE204600F025F80348DA
:10307000AC38FFF77BFFFAE700380140BC000020C6
:103080000044004000540040A08601007761737343
:103090007570200A0D00000070B505460024FDF78C
:1030A0007DF886B204E0287800F006F8641C6D1CF8
:1030B000B442F8DB70BD000008B542F210738DF821
:1030C0000000012269460248FEF793FC08BD00009B
:1030D000FC000020000000000000000001020304CA
:1030E0000607080900000000010203040C31000873
:1030F0000000002010000000D02400081C3100084F
:103100001000002030050000E0240008010000004D
:0C311000100000000000000000366E01FE
:0400000508000121CD
:00000001FF
