:020000040800F2
:100000005004002035010008BB0B0008470B000816
:10001000B90B0008A10100087D0F000800000000D6
:10002000000000000000000000000000DF0B0008DE
:10003000A301000800000000DD0B0008E10B000830
:100040004F0100084F0100084F0100084F01000850
:100050004F0100084F0100084F0100084F01000840
:100060004F0100084F0100084F0100084F01000830
:100070004F0100084F0100084F0100084F01000820
:100080004F0100084F0100084F0100080000000068
:100090000000000000000000000000004F01000808
:1000A0004F0100084F0100084F0100084F010008F0
:1000B0004F0100084F0100084F0100084F010008E0
:1000C0004F0100084F0100084F0100084F010008D0
:1000D0004F0100084F0100084F0100084F010008C0
:1000E0004F0100084F0100084F0100080000000008
:1000F0000000000000000000000000000000000000
:1001000000000000000000000000000000000000EF
:1001100000000000000000004F0100084F0100082F
:10012000DFF80CD000F02AF8004800479D0F0008C7
:10013000500400200648804706480047FEE7FEE7D7
:10014000FEE7FEE7FEE7FEE7FEE7FEE7FEE7FEE787
:100150002D0C000821010008D2B201E000F8012BAB
:10016000491EFBD270470022F6E710B513460A4637
:1001700004461946FFF7F0FF204610BD064C074D18
:1001800006E0E06840F0010394E807009847103467
:10019000AC42F6D3FFF7C8FF0C1000082C10000883
:1001A000FEE770472DE9F84FDFF890A100220AF131
:1001B000040B144601274FF00F090BF1040E00BF8A
:1001C0000B6807FA04F52B40AB4274D1DFF870C11D
:1001D0004E68A6EB0C0866452BD00DDC032E34D000
:1001E00005DC36B3012E19D0022E2FD11BE0112EC3
:1001F00016D0122E2AD119E0B8F5881F19D006DCC6
:10020000B8F5803F15D0B8F5801F1FD111E0B8F5C3
:10021000001F0ED0B8F5041F18D10AE0CA6815E017
:10022000CA68121D12E0CA6808320FE0CA680C32B0
:100230000CE08A682AB1012A4FF0080203D0456118
:1002400004E0042202E0056100E00022FF2B01D857
:10025000064601E000F104064FEA840501D9A5F144
:100260002005D6F800C009FA05F82CEA080C02FAB5
:1002700005F54CEA050CC6F800C04D68ED0057D5F1
:10028000304DAE6946F00106AE61AD6924F003065B
:1002900005F0010500952C4D06EB050CDCF8085027
:1002A000A6074FEA167809FA08F6B543274EB0427A
:1002B00002D1002610E03BE0254EB04201D10126DC
:1002C0000AE0244EB04201D1022605E0224EB0429F
:1002D00001D1032600E0042606FA08F62E43CCF8E6
:1002E00008604D68DAF80060ED03554601D51E43FD
:1002F00000E09E432E604D68DBF80060AD035D4674
:1003000001D51E4300E09E432E604D68DEF800607C
:10031000ED02754601D51E4300E09E432E604D68F8
:10032000AD020E4D2E6801D51E4300E09E432E60A7
:10033000641C102CFFF444AFBDE8F88F00040140AA
:1003400000001110001002400000014000080140B0
:10035000000C014000100140001401400C04014059
:100360000AB1016170470904FBE700000148806899
:1003700070470000000000200248816802781144A4
:10038000816070470000002010B5032000F066F87F
:10039000002000F005F800F023F8002010BD000058
:1003A00070B50D4D04464FF47A712878B1FBF0F02A
:1003B0000A490968B1FBF0F000F0CCFA48B9102CFA
:1003C00007D200222146501E00F028F800206C6061
:1003D00070BD012070BD0000000000200C00002056
:1003E0000C4808B5816941F001018161816901F022
:1003F00001010091C16941F08051C161C06900F003
:10040000805000900448416821F0E06141F00071A3
:10041000416008BD0010024000000140F0B40E4BE6
:100420001B680C46C3F30223C3F10705042D00D952
:100430000425191D072901D2002300E0DB1E012637
:1004400006FA05F1491E214099409E40761E16404D
:100450003143F0BC00F0B2BB0CED00E0064900F007
:10046000070208684FF6FF03184040EA0220034ADB
:1004700010430860704700000CED00E00000FA0532
:100480002DE9F041054600683F4C810712D5400731
:1004900003D5606840F4E06060602878000703D509
:1004A000606840F4605060606068A96820F0F00007
:1004B000084360602878C00743D06868012804D0EA
:1004C0002168022804D0890703E02168890300E03D
:1004D0008901002902DB0120BDE8F081616821F07B
:1004E000030101436160FFF741FF0746686841F27D
:1004F0008836012807D0022811D01EE0FFF736FF0A
:10050000C01BB04217D86068C0F381000128F5D144
:1005100017E000BFFFF72AFFC01BB0420BD860688E
:10052000C0F381000228F5D10BE000BFFFF71EFFEA
:10053000C01BB04201D90320CEE7606810F00C0F59
:10054000F4D12878400705D56068E96820F4E060B8
:10055000084360602878000706D56068296920F4A0
:10056000605040EAC100606000F034F86168074AFA
:10057000C1F30311515CC840054908600020FFF732
:100580000FFF0020A8E7000000100240F40F000851
:100590000C0000200448054900684968044AC1F37A
:1005A0000221515CC84070470C000020001002403E
:1005B000041000080448054900684968044AC1F36A
:1005C000C221515CC84070470C000020001002405E
:1005D0000410000813A188B00FC98DE80F0015A101
:1005E0000DF1100C0FC98CE80F00164A516816481F
:1005F00001F00C03042B10D0082B0ED1C1F3834360
:10060000C9031DF803000AD5D16A04AA01F00F013D
:10061000515C0D4A5043B0FBF1F008B070470B49F4
:100620004843FAE702030405060708090A0B0C0D04
:100630000E0F10100102030405060708090A0B0C2F
:100640000D0E0F100010024000127A0000093D004C
:100650002DE9F84F04460078B94DC00748D06868C6
:10066000C0F38100012807D06868C0F38100022828
:1006700009D16868C00306D52868800338D560684A
:1006800000286FD034E06068B0F5803F0BD010B127
:10069000B0F5A02F11D0286820F480302860286899
:1006A00020F4802002E0286840F4803028606068F0
:1006B00088B1FFF75BFE064609E0286840F4802019
:1006C0002860F0E7FFF752FE801B642875D8286881
:1006D0008003F7D50CE0FFF749FE064605E000BFB2
:1006E000FFF744FE801B6428F0D828688003F7D405
:1006F0002078944E80074FF001094FF000083BD559
:10070000686810F00C0F07D06868C0F381000228F9
:1007100009D16868C00306D42868800714D5206909
:1007200001281FD110E02069B0B1C6F80090FFF792
:100730001DFE074605E000BFFFF718FEC01B02289C
:10074000C4D828688007F7D52868616920F0F800C8
:1007500040EAC10028600FE0C6F80080FFF706FEFF
:10076000074606E0E9E000BFFFF700FEC01B0228D5
:1007700023D828688007F7D4207800072CD5724842
:10078000A169D9B1C0F80090FFF7F0FD074604E079
:10079000FFF7ECFDC01B02280FD8686A8007F7D569
:1007A0006A484FF4FA510068B0FBF1F0009000BFC6
:1007B0000098411E0091FAD20EE080E0C0F800805F
:1007C000FFF7D4FD074604E0FFF7D0FDC01B022869
:1007D00075D8686A8007F7D42078400760D5E86943
:1007E0000027C00008D4E86940F08050E861E8695B
:1007F000012700F08050009055480168C90513D4C6
:100800000168834641F480710160FFF7AFFD8246C5
:1008100006E000BFFFF7AAFDA0EB0A0064284ED84F
:10082000DBF80000C005F5D5E06801280AD008B162
:10083000052813D0286A20F001002862286A20F0D9
:10084000040002E0286A40F001002862E06841F2FA
:10085000883B98B1FFF78AFD82460BE0286A40F09A
:1008600004002862EEE700BFFFF780FDA0EB0A015D
:1008700059455AD8286A8007F6D50CE0FFF776FD6F
:10088000824605E0FFF772FDA0EB0A0159454CD8FE
:10089000286A8007F6D41FB1E86920F08050E8612B
:1008A000E06988B36968C1F38101022945D0022853
:1008B000C6F8608004D0FFF759FD044638E034E004
:1008C000FFF754FD074604E0FFF750FDC01B022868
:1008D0002BD828688001F7D4206AB0F5803F05D175
:1008E000E86AA16820F00F000843E862D4E9080133
:1008F0000843696821F4741108436860C6F8609081
:10090000FFF734FD044606E015E000BFFFF72EFDBB
:10091000001B022809D828688001F7D50BE000BF2A
:10092000FFF724FD001B022802D90320BDE8F88F41
:1009300028688001F4D40020F8E70120F6E70000E1
:100940000010024000004242800442420C0000209D
:100950000070004010B5401EB0F1807F01D301202F
:1009600010BD4FF0E02460610F21601700F026F900
:100970000020A06107202061002010BD70B5040098
:1009800004D094F83900002510B106E0012070BDB4
:1009900084F83850204600F023F8242084F83900E9
:1009A0002068C16821F40051C160204600F064F95C
:1009B0002068016921F4904101612068416921F0BA
:1009C0002A0141612068C16841F40051C160E563BA
:1009D000202084F8390084F83A00002070BD00001F
:1009E00070B586B000240094019402940394234EC1
:1009F0000368234902200322224DB34219D18B6997
:100A000043F480438B618B6903F4804304938B69C7
:100A100043F004038B618969039201F0040104919E
:100A20000102CDE9001069462846FFF7BBFB2815F7
:100A30001BE0154EB3421FD1CB6943F40033CB61A9
:100A4000CB6903F4003304938B6943F004038B6197
:100A50008969039201F0040104910421CDE9001099
:100A600069462846FFF79EFB0820CDE90004694649
:100A700028460294FFF796FB06B070BD003801408F
:100A80000010024000080140004400402DE9F843F6
:100A9000044690F839001F4616460D46202850D1CE
:100AA000A5B19EB194F8380001284AD0012084F8FD
:100AB00038004FF00008C4F83C80212084F8390049
:100AC000FFF754FCA6848146E68426E00120BDE8B9
:100AD000F883E08C401EE084A0684B46B0F5805F50
:100AE0004FF000024FF080012046009703D000F045
:100AF00013FAE8B90DE000F00FFAC8B928882168A8
:100B0000C0F308004860206908B16D1C05E0AD1C09
:100B100003E0216815F8010B4860E08C0028D8D16B
:100B20004B46002240212046009700F0F5F908B11D
:100B30000320CCE7202084F8390084F83880002096
:100B4000C5E70220C3E7FEE770B586B00024184869
:100B50000094019402940394816941F01001816131
:100B6000816901F010010491816941F020018161E6
:100B7000816901F020010491816941F004018161E2
:100B800080690C4E00F004004FF440750490002280
:100B900029463046FFF7E4FB01200095CDE901042A
:100BA0000220039069463046FFF7FCFA06B070BD9C
:100BB0000010024000100140FEE770470907090ECF
:100BC000002806DA00F00F0000F1E02080F8141D84
:100BD000704700F1E02080F80014704770477047BC
:100BE000FFF7CABB30B58FB028216846FFF7BBFAC4
:100BF00014210AA8FFF7B7FA01200090000400248E
:100C0000CDE901040225CDE907508000099068462E
:100C1000FFF71EFD0F200A90CDE90B540D94002123
:100C20000AA80E94FFF72CFC0FB030BD0E480168E7
:100C300041F00101016041680C4A114041600168C6
:100C40000B4A11400160016821F480210160416874
:100C500021F4FE0141604FF41F0181600021C16257
:100C60000449C00308607047001002400000FFF80C
:100C7000FFFFF6FE08ED00E02DE9F04104460068B4
:100C80000169E26821F44051114301612169A068C2
:100C9000E26908436169114322680843D16849F257
:100CA0000C6399430143D16020684169A26921F432
:100CB000407111434161E1696425B1F5004F9548E8
:100CC00021684FF032083DD081427AD1FFF772FCA3
:100CD00000EBC00101EB001061688900B0FBF1F688
:100CE000FFF768FC00EBC00101EB001061688900B0
:100CF000B0FBF1F0B0FBF5F06FF01801484306EBE4
:100D0000800108EB0110B0FBF5F000F0F006FFF7F2
:100D100051FC00EBC00101EB001061688900B0FBE1
:100D2000F1F0B0FBF5F006EB0016FFF743FC00EB2B
:100D3000C00101EB001061688900B0FBF1F7FFF71B
:100D400039FCD0E081423DD1FFF734FC00EBC0011B
:100D500001EB001061684900B0FBF1F0B0FBF5F069
:100D60000601FFF727FC00EBC00101EB00106168F2
:100D70004900B0FBF1F7FFF71DFC00EBC00101EBF0
:100D8000001061684900B0FBF1F0B0FBF5F06FF0C6
:100D90001801484307EB800108EBC100B0FBF5F0F8
:100DA00000F0F80006EB4006FFF704FC00EBC00182
:100DB00001EB001061684900B0FBF1F7FFF7FAFBA7
:100DC0003CE055E0FFF7E6FB00EBC00101EB001053
:100DD00061684900B0FBF1F0B0FBF5F00601FFF7E8
:100DE000D9FB00EBC00101EB001061684900B0FBCA
:100DF000F1F7FFF7CFFB00EBC00101EB00106168DA
:100E00004900B0FBF1F0B0FBF5F06FF0180148437A
:100E100007EB800108EBC100B0FBF5F000F0F80033
:100E200006EB4006FFF7B6FB00EBC00101EB00103C
:100E300061684900B0FBF1F7FFF7ACFB00EBC001C4
:100E400001EB001061684900B0FBF1F0B0FBF5F078
:100E50006FF01801484307EB800108EBC100B0FBBD
:100E6000F5F000F00700216830448860BDE8F081AB
:100E7000FFF790FB00EBC00101EB001061688900F7
:100E8000B0FBF1F6FFF786FB00EBC00101EB0010B1
:100E900061688900B0FBF1F0B0FBF5F06FF018016C
:100EA000484306EB800108EB0110B0FBF5F000F0C1
:100EB000F006FFF76FFB00EBC00101EB001061686B
:100EC0008900B0FBF1F0B0FBF5F006EB0016FFF780
:100ED00061FB00EBC00101EB001061688900B0FB11
:100EE000F1F7FFF757FB00EBC00101EB0010616861
:100EF0008900B0FBF1F0B0FBF5F06FF0180148434A
:100F000007EB800108EB0110B0FBF5F000F00F00DB
:100F1000A9E70000003801402DE9F0419846174646
:100F20000E460446069D1DE0681C1BD02DB1FFF740
:100F30001DFAA0EB0800A84214D92068C16821F46A
:100F4000D071C1602068416921F001014161202018
:100F500084F8390084F83A00002084F8380003202F
:100F6000BDE8F0812068006836EA000004D0002067
:100F7000B842D9D00020F3E70120F9E7FEE702E00C
:100F800008C8121F08C1002AFAD170477047002014
:100F900001E001C1121F002AFBD17047FFF7F4F9ED
:100FA000FFF720FEFFF7D0FD0A4809490C22016037
:100FB0004FF41651416000218160C160C0E9041204
:100FC0008161C161FFF7DAFC052000F005F8FEE75A
:100FD000004400401000002008B542F210738DF864
:100FE0000000012269460248FFF750FD08BD0000DD
:100FF00010000020000000000000000001020304B7
:101000000607080900000000010203042C10000874
:1010100000000020100000007E0F00083C100008B7
:1010200010000020400400008E0F000801000000A6
:0C103000100000000000000000366E01FF
:0400000508000121CD
:00000001FF
